Component: ARM Compiler 5.06 update 4 (build 422) Tool: armlink [4d35d2]

==============================================================================

Section Cross References

    main.o(i.EXTI15_10_IRQHandler) refers to main.o(.data) for glob_var1
    main.o(i.Lib_Error_Message) refers to _printf_percent.o(.ARM.Collect$$_printf_percent$$00000000) for _printf_percent
    main.o(i.Lib_Error_Message) refers to _printf_u.o(.ARM.Collect$$_printf_percent$$0000000A) for _printf_u
    main.o(i.Lib_Error_Message) refers to _printf_s.o(.ARM.Collect$$_printf_percent$$00000014) for _printf_s
    main.o(i.Lib_Error_Message) refers to _printf_dec.o(.text) for _printf_int_dec
    main.o(i.Lib_Error_Message) refers to _printf_str.o(.text) for _printf_str
    main.o(i.Lib_Error_Message) refers to noretval__2sprintf.o(.text) for __2sprintf
    main.o(i.Lib_Error_Message) refers to uart_output.o(i.USART_send_my_string) for USART_send_my_string
    main.o(i.main) refers to rt_memcpy_w.o(.text) for __aeabi_memcpy4
    main.o(i.main) refers to stm32f4xx_rcc.o(i.RCC_AHB1PeriphClockCmd) for RCC_AHB1PeriphClockCmd
    main.o(i.main) refers to uart_output.o(i.USART_init_myfunc) for USART_init_myfunc
    main.o(i.main) refers to main.o(i.IRQ_EXTI_13_switch_on) for IRQ_EXTI_13_switch_on
    main.o(i.main) refers to uart_output.o(i.USART_send_my_string) for USART_send_my_string
    main.o(i.main) refers to queue.o(i.xQueueGenericCreate) for xQueueGenericCreate
    main.o(i.main) refers to tasks.o(i.xTaskCreate) for xTaskCreate
    main.o(i.main) refers to tasks.o(i.vTaskStartScheduler) for vTaskStartScheduler
    main.o(i.main) refers to main.o(.data) for xMyQueue
    main.o(i.main) refers to main.o(i.vTask1) for vTask1
==============================================================================

Removing Unused input sections from the image.

    Removing main.o(.rev16_text), (4 bytes).
    Removing main.o(.revsh_text), (4 bytes).
    Removing main.o(.rrx_text), (6 bytes).
    Removing uart_output.o(.rev16_text), (4 bytes).
    Removing uart_output.o(.revsh_text), (4 bytes).
    Removing uart_output.o(.rrx_text), (6 bytes).
    Removing uart_output.o(i.USART_ESP_init), (160 bytes).
    Removing uart_output.o(i.USART_ESP_send_string), (68 bytes).
    Removing utils.o(.rev16_text), (4 bytes).
    Removing utils.o(.revsh_text), (4 bytes).
    Removing utils.o(.rrx_text), (6 bytes).
    Removing system_stm32f4xx.o(.rev16_text), (4 bytes).
    Removing system_stm32f4xx.o(.revsh_text), (4 bytes).
    Removing system_stm32f4xx.o(.rrx_text), (6 bytes).
    Removing system_stm32f4xx.o(i.SystemCoreClockUpdate), (168 bytes).
    Removing misc.o(.rev16_text), (4 bytes).
    Removing misc.o(.revsh_text), (4 bytes).
    Removing misc.o(.rrx_text), (6 bytes).
==============================================================================

Image Symbol Table

    Local Symbols

    Symbol Name                              Value     Ov Type        Size  Object(Section)

    ../clib/angel/boardlib.s                 0x00000000   Number         0  boardinit3.o ABSOLUTE
    ../clib/angel/boardlib.s                 0x00000000   Number         0  boardinit2.o ABSOLUTE
    ../clib/angel/boardlib.s                 0x00000000   Number         0  boardshut.o ABSOLUTE
    ../clib/angel/boardlib.s                 0x00000000   Number         0  boardinit1.o ABSOLUTE
    ../clib/angel/handlers.s                 0x00000000   Number         0  __scatter_copy.o ABSOLUTE
    ../clib/angel/handlers.s                 0x00000000   Number         0  __scatter_zi.o ABSOLUTE
    ../clib/angel/kernel.s                   0x00000000   Number         0  __rtentry.o ABSOLUTE
    ../clib/angel/kernel.s                   0x00000000   Number         0  rtexit.o ABSOLUTE
    ../clib/angel/kernel.s                   0x00000000   Number         0  rtexit2.o ABSOLUTE
    ../clib/angel/kernel.s                   0x00000000   Number         0  __rtentry4.o ABSOLUTE
    ../clib/angel/kernel.s                   0x00000000   Number         0  __rtentry2.o ABSOLUTE
    ../clib/angel/rt.s                       0x00000000   Number         0  rt_locale_intlibspace.o ABSOLUTE
    ../clib/angel/rt.s                       0x00000000   Number         0  rt_locale.o ABSOLUTE
    ../clib/angel/rt.s                       0x00000000   Number         0  rt_raise.o ABSOLUTE
    ../clib/angel/scatter.s                  0x00000000   Number         0  __scatter.o ABSOLUTE
    ../clib/angel/startup.s                  0x00000000   Number         0  __main.o ABSOLUTE
    ../clib/angel/sys.s                      0x00000000   Number         0  sys_stackheap_outer.o ABSOLUTE
    ../clib/angel/sys.s                      0x00000000   Number         0  indicate_semi.o ABSOLUTE
    ../clib/angel/sys.s                      0x00000000   Number         0  use_no_semi.o ABSOLUTE
    ../clib/angel/sys.s                      0x00000000   Number         0  libspace.o ABSOLUTE
    ../clib/angel/sysapp.c                   0x00000000   Number         0  sys_wrch.o ABSOLUTE
    ../clib/angel/sysapp.c                   0x00000000   Number         0  sys_exit.o ABSOLUTE
    ../clib/angel/sysapp.c                   0x00000000   Number         0  sys_command.o ABSOLUTE
    ../clib/armsys.c                         0x00000000   Number         0  argv_veneer.o ABSOLUTE
    ../clib/armsys.c                         0x00000000   Number         0  argv_veneer.o ABSOLUTE
    ../clib/armsys.c                         0x00000000   Number         0  _get_argv_nomalloc.o ABSOLUTE
    ../clib/armsys.c                         0x00000000   Number         0  no_argv.o ABSOLUTE
    ../clib/bigflt.c                         0x00000000   Number         0  bigflt0.o ABSOLUTE
    ../clib/btod.s                           0x00000000   Number         0  btod.o ABSOLUTE
    ../clib/heapalloc.c                      0x00000000   Number         0  hrguard.o ABSOLUTE
    ../clib/heapaux.c                        0x00000000   Number         0  heapauxi.o ABSOLUTE
    ../clib/libinit.s                        0x00000000   Number         0  libshutdown.o ABSOLUTE
    ../clib/libinit.s                        0x00000000   Number         0  libshutdown2.o ABSOLUTE
    ../clib/libinit.s                        0x00000000   Number         0  libinit.o ABSOLUTE
    ../clib/libinit.s                        0x00000000   Number         0  libinit2.o ABSOLUTE
    ../clib/locale.s                         0x00000000   Number         0  lc_numeric_c.o ABSOLUTE
    ../clib/longlong.s                       0x00000000   Number         0  lludiv10.o ABSOLUTE
    ../clib/memcpset.s                       0x00000000   Number         0  rt_memcpy_w.o ABSOLUTE
    ../clib/memcpset.s                       0x00000000   Number         0  rt_memclr_w.o ABSOLUTE
    ../clib/memcpset.s                       0x00000000   Number         0  strcmpv7m.o ABSOLUTE
    ../clib/memcpset.s                       0x00000000   Number         0  rt_memclr.o ABSOLUTE
    ../clib/memcpset.s                       0x00000000   Number         0  rt_memcpy_v6.o ABSOLUTE
    ../clib/memcpset.s                       0x00000000   Number         0  aeabi_memset.o ABSOLUTE
    ../clib/misc.s                           0x00000000   Number         0  printf_stubs.o ABSOLUTE
    ../clib/printf.c                         0x00000000   Number         0  _printf_char.o ABSOLUTE
    ../clib/printf.c                         0x00000000   Number         0  _printf_intcommon.o ABSOLUTE
    ../clib/printf.c                         0x00000000   Number         0  _printf_fp_infnan.o ABSOLUTE
    ../clib/printf.c                         0x00000000   Number         0  __2sprintf.o ABSOLUTE
    ../clib/printf.c                         0x00000000   Number         0  noretval__2sprintf.o ABSOLUTE
    ../clib/printf.c                         0x00000000   Number         0  __printf.o ABSOLUTE
    ../clib/printf.c                         0x00000000   Number         0  _printf_pad.o ABSOLUTE
    ../clib/printf.c                         0x00000000   Number         0  _printf_str.o ABSOLUTE
    ../clib/printf.c                         0x00000000   Number         0  _printf_dec.o ABSOLUTE
    ../clib/printf.c                         0x00000000   Number         0  __printf_nopercent.o ABSOLUTE
    ../clib/printf.c                         0x00000000   Number         0  __printf_flags.o ABSOLUTE
    ../clib/printf.c                         0x00000000   Number         0  __printf_ss.o ABSOLUTE
    ../clib/printf.c                         0x00000000   Number         0  __printf_flags_ss.o ABSOLUTE
    ../clib/printf.c                         0x00000000   Number         0  __printf_wp.o ABSOLUTE
    ../clib/printf.c                         0x00000000   Number         0  __printf_flags_wp.o ABSOLUTE
    ../clib/printf.c                         0x00000000   Number         0  __printf_ss_wp.o ABSOLUTE
    ../clib/printf.c                         0x00000000   Number         0  __printf_flags_ss_wp.o ABSOLUTE
    ../clib/printf.c                         0x00000000   Number         0  _sputc.o ABSOLUTE
    ../clib/printf.c                         0x00000000   Number         0  _printf_char_common.o ABSOLUTE
    ../clib/printf.c                         0x00000000   Number         0  _printf_fp_dec.o ABSOLUTE
    ../clib/printf_percent.s                 0x00000000   Number         0  _printf_d.o ABSOLUTE
    ../clib/printf_percent.s                 0x00000000   Number         0  _printf_percent_end.o ABSOLUTE
    ../clib/printf_percent.s                 0x00000000   Number         0  _printf_s.o ABSOLUTE
    ../clib/printf_percent.s                 0x00000000   Number         0  _printf_f.o ABSOLUTE
    ../clib/printf_percent.s                 0x00000000   Number         0  _printf_i.o ABSOLUTE
    ../clib/printf_percent.s                 0x00000000   Number         0  _printf_percent.o ABSOLUTE
    ../clib/printf_percent.s                 0x00000000   Number         0  _printf_u.o ABSOLUTE
    ../clib/signal.c                         0x00000000   Number         0  defsig_cppl_inner.o ABSOLUTE
    ../clib/signal.c                         0x00000000   Number         0  defsig_rtmem_formal.o ABSOLUTE
    ../clib/signal.c                         0x00000000   Number         0  defsig_pvfn_inner.o ABSOLUTE
    ../clib/signal.c                         0x00000000   Number         0  defsig_stak_inner.o ABSOLUTE
    ../clib/signal.c                         0x00000000   Number         0  defsig_rtred_inner.o ABSOLUTE
    ../clib/signal.c                         0x00000000   Number         0  defsig_fpe_inner.o ABSOLUTE
    ../clib/signal.c                         0x00000000   Number         0  defsig_rtmem_outer.o ABSOLUTE
    ../clib/signal.c                         0x00000000   Number         0  defsig_abrt_inner.o ABSOLUTE
    ../clib/signal.c                         0x00000000   Number         0  __raise.o ABSOLUTE
    ../clib/signal.c                         0x00000000   Number         0  defsig_rtmem_inner.o ABSOLUTE
    ../clib/signal.c                         0x00000000   Number         0  defsig_exit.o ABSOLUTE
    ../clib/signal.c                         0x00000000   Number         0  defsig_general.o ABSOLUTE
    ../clib/signal.c                         0x00000000   Number         0  defsig_other.o ABSOLUTE
    ../clib/signal.c                         0x00000000   Number         0  defsig_segv_inner.o ABSOLUTE
    ../clib/signal.s                         0x00000000   Number         0  defsig.o ABSOLUTE
    ../clib/stdlib.c                         0x00000000   Number         0  exit.o ABSOLUTE
    ../clib/string.c                         0x00000000   Number         0  strlen.o ABSOLUTE
    ../fplib/ddiv.s                          0x00000000   Number         0  ddiv.o ABSOLUTE
    ../fplib/dfixu.s                         0x00000000   Number         0  dfixu.o ABSOLUTE
    ../fplib/dflt.s                          0x00000000   Number         0  dflt_clz.o ABSOLUTE
    ../fplib/dmul.s                          0x00000000   Number         0  dmul.o ABSOLUTE
    ../fplib/dnaninf.s                       0x00000000   Number         0  dnaninf.o ABSOLUTE
    ../fplib/dretinf.s                       0x00000000   Number         0  dretinf.o ABSOLUTE
    ../fplib/f2d.s                           0x00000000   Number         0  f2d.o ABSOLUTE
    ../fplib/fnaninf.s                       0x00000000   Number         0  fnaninf.o ABSOLUTE
    ../fplib/fpinit.s                        0x00000000   Number         0  fpinit.o ABSOLUTE
    ../fplib/istatus.s                       0x00000000   Number         0  istatus.o ABSOLUTE
    ../fplib/printf1.s                       0x00000000   Number         0  printf1.o ABSOLUTE
    ../fplib/usenofp.s                       0x00000000   Number         0  usenofp.o ABSOLUTE
    ../mathlib/fpclassify.c                  0x00000000   Number         0  fpclassify.o ABSOLUTE
    Drivers\ADNS-9800\ADNS-9800_drv.c        0x00000000   Number         0  adns-9800_drv.o ABSOLUTE
    Drivers\ADNS-9800\SPI_ADNS-9800.c        0x00000000   Number         0  spi_adns-9800.o ABSOLUTE
    Drivers\\ADNS-9800\\ADNS-9800_drv.c      0x00000000   Number         0  adns-9800_drv.o ABSOLUTE
    Drivers\\ADNS-9800\\SPI_ADNS-9800.c      0x00000000   Number         0  spi_adns-9800.o ABSOLUTE
    Drivers\\motor_control\\PWM_AB.c         0x00000000   Number         0  pwm_ab.o ABSOLUTE
    Drivers\\motor_control\\encoder.c        0x00000000   Number         0  encoder.o ABSOLUTE
    Drivers\motor_control\PWM_AB.c           0x00000000   Number         0  pwm_ab.o ABSOLUTE
    Drivers\motor_control\encoder.c          0x00000000   Number         0  encoder.o ABSOLUTE
    FreeRTOS-F4M\\port.c                     0x00000000   Number         0  port.o ABSOLUTE
    FreeRTOS-F4M\croutine.c                  0x00000000   Number         0  croutine.o ABSOLUTE
    FreeRTOS-F4M\event_groups.c              0x00000000   Number         0  event_groups.o ABSOLUTE
    FreeRTOS-F4M\heap_1.c                    0x00000000   Number         0  heap_1.o ABSOLUTE
    FreeRTOS-F4M\list.c                      0x00000000   Number         0  list.o ABSOLUTE
    FreeRTOS-F4M\port.c                      0x00000000   Number         0  port.o ABSOLUTE
    FreeRTOS-F4M\queue.c                     0x00000000   Number         0  queue.o ABSOLUTE
    FreeRTOS-F4M\tasks.c                     0x00000000   Number         0  tasks.o ABSOLUTE
    FreeRTOS-F4M\timers.c                    0x00000000   Number         0  timers.o ABSOLUTE
    STM32F4xx_StdPeriph_Driver\\src\\misc.c  0x00000000   Number         0  misc.o ABSOLUTE
    STM32F4xx_StdPeriph_Driver\\src\\stm32f4xx_gpio.c 0x00000000   Number         0  stm32f4xx_gpio.o ABSOLUTE
    STM32F4xx_StdPeriph_Driver\\src\\stm32f4xx_rcc.c 0x00000000   Number         0  stm32f4xx_rcc.o ABSOLUTE
    STM32F4xx_StdPeriph_Driver\\src\\stm32f4xx_usart.c 0x00000000   Number         0  stm32f4xx_usart.o ABSOLUTE
    STM32F4xx_StdPeriph_Driver\src\misc.c    0x00000000   Number         0  misc.o ABSOLUTE
    STM32F4xx_StdPeriph_Driver\src\stm32f4xx_gpio.c 0x00000000   Number         0  stm32f4xx_gpio.o ABSOLUTE
    STM32F4xx_StdPeriph_Driver\src\stm32f4xx_rcc.c 0x00000000   Number         0  stm32f4xx_rcc.o ABSOLUTE
    STM32F4xx_StdPeriph_Driver\src\stm32f4xx_usart.c 0x00000000   Number         0  stm32f4xx_usart.o ABSOLUTE
    Threads\\orientation_task.c              0x00000000   Number         0  orientation_task.o ABSOLUTE
    Threads\orientation_task.c               0x00000000   Number         0  orientation_task.o ABSOLUTE
    dc.s                                     0x00000000   Number         0  dc.o ABSOLUTE
    main_code\UART_output.c                  0x00000000   Number         0  uart_output.o ABSOLUTE
    main_code\\UART_output.c                 0x00000000   Number         0  uart_output.o ABSOLUTE
    main_code\\main.c                        0x00000000   Number         0  main.o ABSOLUTE
    main_code\\system_stm32f4xx.c            0x00000000   Number         0  system_stm32f4xx.o ABSOLUTE
    main_code\\utils.c                       0x00000000   Number         0  utils.o ABSOLUTE
    main_code\main.c                         0x00000000   Number         0  main.o ABSOLUTE
    main_code\startup_stm32f411xe.s          0x00000000   Number         0  startup_stm32f411xe.o ABSOLUTE
    main_code\system_stm32f4xx.c             0x00000000   Number         0  system_stm32f4xx.o ABSOLUTE
    main_code\utils.c                        0x00000000   Number         0  utils.o ABSOLUTE
    RESET                                    0x08000000   Section      408  startup_stm32f411xe.o(RESET)
    !!!main                                  0x08000198   Section        8  __main.o(!!!main)
    !!!scatter                               0x080001a0   Section       52  __scatter.o(!!!scatter)
    !!handler_copy                           0x080001d4   Section       26  __scatter_copy.o(!!handler_copy)
    !!handler_zi                             0x080001f0   Section       28  __scatter_zi.o(!!handler_zi)
    .ARM.Collect$$_printf_percent$$00000000  0x0800020c   Section        0  _printf_percent.o(.ARM.Collect$$_printf_percent$$00000000)
    .ARM.Collect$$_printf_percent$$00000003  0x0800020c   Section        6  _printf_f.o(.ARM.Collect$$_printf_percent$$00000003)
    .ARM.Collect$$_printf_percent$$00000008  0x08000212   Section        6  _printf_i.o(.ARM.Collect$$_printf_percent$$00000008)
    .ARM.Collect$$_printf_percent$$00000009  0x08000218   Section        6  _printf_d.o(.ARM.Collect$$_printf_percent$$00000009)
    .ARM.Collect$$_printf_percent$$0000000A  0x0800021e   Section        6  _printf_u.o(.ARM.Collect$$_printf_percent$$0000000A)
    .ARM.Collect$$_printf_percent$$00000014  0x08000224   Section        6  _printf_s.o(.ARM.Collect$$_printf_percent$$00000014)
    .ARM.Collect$$_printf_percent$$00000017  0x0800022a   Section        4  _printf_percent_end.o(.ARM.Collect$$_printf_percent$$00000017)
    .ARM.Collect$$libinit$$00000000          0x0800022e   Section        2  libinit.o(.ARM.Collect$$libinit$$00000000)
    .ARM.Collect$$libinit$$00000001          0x08000230   Section        4  libinit2.o(.ARM.Collect$$libinit$$00000001)
    .ARM.Collect$$libinit$$00000004          0x08000234   Section        0  libinit2.o(.ARM.Collect$$libinit$$00000004)
    .ARM.Collect$$libinit$$0000000A          0x08000234   Section        0  libinit2.o(.ARM.Collect$$libinit$$0000000A)
    .ARM.Collect$$libinit$$0000000C          0x08000234   Section        0  libinit2.o(.ARM.Collect$$libinit$$0000000C)
    .ARM.Collect$$libinit$$0000000E          0x08000234   Section        0  libinit2.o(.ARM.Collect$$libinit$$0000000E)
    .ARM.Collect$$libinit$$0000000F          0x08000234   Section        6  libinit2.o(.ARM.Collect$$libinit$$0000000F)
    .ARM.Collect$$libinit$$00000011          0x0800023a   Section        0  libinit2.o(.ARM.Collect$$libinit$$00000011)
    .ARM.Collect$$libinit$$00000013          0x0800023a   Section        0  libinit2.o(.ARM.Collect$$libinit$$00000013)
    .ARM.Collect$$libinit$$00000015          0x0800023a   Section        0  libinit2.o(.ARM.Collect$$libinit$$00000015)
    .ARM.Collect$$libinit$$00000016          0x0800023a   Section       10  libinit2.o(.ARM.Collect$$libinit$$00000016)
    .ARM.Collect$$libinit$$00000017          0x08000244   Section        0  libinit2.o(.ARM.Collect$$libinit$$00000017)
    .ARM.Collect$$libinit$$00000019          0x08000244   Section        0  libinit2.o(.ARM.Collect$$libinit$$00000019)
    .ARM.Collect$$libinit$$0000001B          0x08000244   Section        0  libinit2.o(.ARM.Collect$$libinit$$0000001B)
    .ARM.Collect$$libinit$$0000001D          0x08000244   Section        0  libinit2.o(.ARM.Collect$$libinit$$0000001D)
    .ARM.Collect$$libinit$$0000001F          0x08000244   Section        0  libinit2.o(.ARM.Collect$$libinit$$0000001F)
    .ARM.Collect$$libinit$$00000021          0x08000244   Section        0  libinit2.o(.ARM.Collect$$libinit$$00000021)
    .ARM.Collect$$libinit$$00000023          0x08000244   Section        0  libinit2.o(.ARM.Collect$$libinit$$00000023)
    .ARM.Collect$$libinit$$00000025          0x08000244   Section        0  libinit2.o(.ARM.Collect$$libinit$$00000025)
    .ARM.Collect$$libinit$$0000002C          0x08000244   Section        0  libinit2.o(.ARM.Collect$$libinit$$0000002C)
    .ARM.Collect$$libinit$$0000002E          0x08000244   Section        0  libinit2.o(.ARM.Collect$$libinit$$0000002E)
    .ARM.Collect$$libinit$$00000030          0x08000244   Section        0  libinit2.o(.ARM.Collect$$libinit$$00000030)
    .ARM.Collect$$libinit$$00000032          0x08000244   Section        0  libinit2.o(.ARM.Collect$$libinit$$00000032)
    .ARM.Collect$$libinit$$00000033          0x08000244   Section        2  libinit2.o(.ARM.Collect$$libinit$$00000033)
    .ARM.Collect$$libshutdown$$00000000      0x08000246   Section        2  libshutdown.o(.ARM.Collect$$libshutdown$$00000000)
    .ARM.Collect$$libshutdown$$00000002      0x08000248   Section        0  libshutdown2.o(.ARM.Collect$$libshutdown$$00000002)
    .ARM.Collect$$libshutdown$$00000004      0x08000248   Section        0  libshutdown2.o(.ARM.Collect$$libshutdown$$00000004)
    .ARM.Collect$$libshutdown$$00000007      0x08000248   Section        0  libshutdown2.o(.ARM.Collect$$libshutdown$$00000007)
    .ARM.Collect$$libshutdown$$0000000A      0x08000248   Section        0  libshutdown2.o(.ARM.Collect$$libshutdown$$0000000A)
    .ARM.Collect$$libshutdown$$0000000C      0x08000248   Section        0  libshutdown2.o(.ARM.Collect$$libshutdown$$0000000C)
    .ARM.Collect$$libshutdown$$0000000F      0x08000248   Section        0  libshutdown2.o(.ARM.Collect$$libshutdown$$0000000F)
    .ARM.Collect$$libshutdown$$00000010      0x08000248   Section        2  libshutdown2.o(.ARM.Collect$$libshutdown$$00000010)
    .ARM.Collect$$rtentry$$00000000          0x0800024a   Section        0  __rtentry.o(.ARM.Collect$$rtentry$$00000000)
    .ARM.Collect$$rtentry$$00000002          0x0800024a   Section        0  __rtentry2.o(.ARM.Collect$$rtentry$$00000002)
    .ARM.Collect$$rtentry$$00000004          0x0800024a   Section        6  __rtentry4.o(.ARM.Collect$$rtentry$$00000004)
    .ARM.Collect$$rtentry$$00000009          0x08000250   Section        0  __rtentry2.o(.ARM.Collect$$rtentry$$00000009)
    .ARM.Collect$$rtentry$$0000000A          0x08000250   Section        4  __rtentry2.o(.ARM.Collect$$rtentry$$0000000A)
    .ARM.Collect$$rtentry$$0000000C          0x08000254   Section        0  __rtentry2.o(.ARM.Collect$$rtentry$$0000000C)
    .ARM.Collect$$rtentry$$0000000D          0x08000254   Section        8  __rtentry2.o(.ARM.Collect$$rtentry$$0000000D)
    .ARM.Collect$$rtexit$$00000000           0x0800025c   Section        2  rtexit.o(.ARM.Collect$$rtexit$$00000000)
    .ARM.Collect$$rtexit$$00000002           0x0800025e   Section        0  rtexit2.o(.ARM.Collect$$rtexit$$00000002)
    .ARM.Collect$$rtexit$$00000003           0x0800025e   Section        4  rtexit2.o(.ARM.Collect$$rtexit$$00000003)
    .ARM.Collect$$rtexit$$00000004           0x08000262   Section        6  rtexit2.o(.ARM.Collect$$rtexit$$00000004)
    .emb_text                                0x08000268   Section      182  port.o(.emb_text)
    $v0                                      0x08000268   Number         0  port.o(.emb_text)
    .text                                    0x08000320   Section       64  startup_stm32f411xe.o(.text)
    $v0                                      0x08000320   Number         0  startup_stm32f411xe.o(.text)
    .text                                    0x08000360   Section        0  noretval__2sprintf.o(.text)
    .text                                    0x08000388   Section        0  _printf_pad.o(.text)
    .text                                    0x080003d6   Section        0  _printf_str.o(.text)
    .text                                    0x08000428   Section        0  _printf_dec.o(.text)
    .text                                    0x080004a0   Section        0  __printf_flags_wp.o(.text)
    .text                                    0x080005d8   Section      138  rt_memcpy_v6.o(.text)
    .text                                    0x08000662   Section      100  rt_memcpy_w.o(.text)
    .text                                    0x080006c6   Section       16  aeabi_memset.o(.text)
    .text                                    0x080006d6   Section        0  heapauxi.o(.text)
    .text                                    0x080006dc   Section        0  _printf_intcommon.o(.text)
    .text                                    0x0800078e   Section        0  _printf_fp_dec.o(.text)
    _fp_digits                               0x08000791   Thumb Code   428  _printf_fp_dec.o(.text)
    .text                                    0x08000ba8   Section        0  _printf_char_common.o(.text)
    _printf_input_char                       0x08000ba9   Thumb Code    10  _printf_char_common.o(.text)
    .text                                    0x08000bd8   Section        0  _sputc.o(.text)
    .text                                    0x08000be2   Section        0  _printf_char.o(.text)
    .text                                    0x08000c0e   Section       68  rt_memclr.o(.text)
    .text                                    0x08000c54   Section        8  rt_locale_intlibspace.o(.text)
    .text                                    0x08000c5c   Section      138  lludiv10.o(.text)
    .text                                    0x08000ce8   Section        0  _printf_fp_infnan.o(.text)
    .text                                    0x08000d68   Section        0  bigflt0.o(.text)
    .text                                    0x08000e44   Section       78  rt_memclr_w.o(.text)
    .text                                    0x08000e94   Section        8  libspace.o(.text)
    .text                                    0x08000e9c   Section       74  sys_stackheap_outer.o(.text)
    .text                                    0x08000ee6   Section        0  exit.o(.text)
    .text                                    0x08000ef8   Section      128  strcmpv7m.o(.text)
    .text                                    0x08000f78   Section        0  sys_exit.o(.text)
    .text                                    0x08000f84   Section        2  use_no_semi.o(.text)
    .text                                    0x08000f86   Section        0  indicate_semi.o(.text)
    CL$$btod_d2e                             0x08000f86   Section       62  btod.o(CL$$btod_d2e)
    CL$$btod_d2e_denorm_low                  0x08000fc4   Section       70  btod.o(CL$$btod_d2e_denorm_low)
    CL$$btod_d2e_norm_op1                    0x0800100a   Section       96  btod.o(CL$$btod_d2e_norm_op1)
    CL$$btod_div_common                      0x0800106a   Section      824  btod.o(CL$$btod_div_common)
    CL$$btod_e2e                             0x080013a2   Section      198  btod.o(CL$$btod_e2e)
    CL$$btod_ediv                            0x08001468   Section       40  btod.o(CL$$btod_ediv)
    CL$$btod_emul                            0x08001490   Section       40  btod.o(CL$$btod_emul)
    CL$$btod_mult_common                     0x080014b8   Section      580  btod.o(CL$$btod_mult_common)
    i.ADNS9800_CONF_resolution               0x080016fc   Section        0  adns-9800_drv.o(i.ADNS9800_CONF_resolution)
    i.ADNS9800_INFO                          0x08001742   Section        0  adns-9800_drv.o(i.ADNS9800_INFO)
    i.ADNS9800_OUT_movement                  0x08001760   Section        0  adns-9800_drv.o(i.ADNS9800_OUT_movement)
    i.ADNS9800_PWRON                         0x080017e2   Section        0  adns-9800_drv.o(i.ADNS9800_PWRON)
    i.ADNS9800_TST_Laser_Control             0x08001832   Section        0  adns-9800_drv.o(i.ADNS9800_TST_Laser_Control)
    i.ADNS9800_TST_SROM_running              0x08001866   Section        0  adns-9800_drv.o(i.ADNS9800_TST_SROM_running)
    i.ENC_A_init                             0x08001890   Section        0  encoder.o(i.ENC_A_init)
    i.ENC_A_value                            0x08001990   Section        0  encoder.o(i.ENC_A_value)
    i.ENC_B_init                             0x08001998   Section        0  encoder.o(i.ENC_B_init)
    i.ENC_B_value                            0x08001a84   Section        0  encoder.o(i.ENC_B_value)
    i.EXTI15_10_IRQHandler                   0x08001a90   Section        0  main.o(i.EXTI15_10_IRQHandler)
    i.IRQ_EXTI_13_switch_on                  0x08001abc   Section        0  main.o(i.IRQ_EXTI_13_switch_on)
    i.Init_SPI1_for_ADNS9800                 0x08001b34   Section        0  spi_adns-9800.o(i.Init_SPI1_for_ADNS9800)
    i.Lib_Error_Message                      0x08001c58   Section        0  main.o(i.Lib_Error_Message)
    i.PWM_disable                            0x08001cac   Section        0  pwm_ab.o(i.PWM_disable)
    i.PWM_enable                             0x08001d18   Section        0  pwm_ab.o(i.PWM_enable)
    i.PWM_init                               0x08001d84   Section        0  pwm_ab.o(i.PWM_init)
    i.PWM_set_value                          0x08001fe0   Section        0  pwm_ab.o(i.PWM_set_value)
    i.RCC_AHB1PeriphClockCmd                 0x08002180   Section        0  stm32f4xx_rcc.o(i.RCC_AHB1PeriphClockCmd)
    i.SPI_read_byte_ADNS9800                 0x08002200   Section        0  spi_adns-9800.o(i.SPI_read_byte_ADNS9800)
    i.SPI_write_byte_ADNS9800                0x08002278   Section        0  spi_adns-9800.o(i.SPI_write_byte_ADNS9800)
    i.SROM_Download_ADNS9800                 0x080022f0   Section        0  spi_adns-9800.o(i.SROM_Download_ADNS9800)
    i.SetSysClock                            0x08002424   Section        0  system_stm32f4xx.o(i.SetSysClock)
    SetSysClock                              0x08002425   Thumb Code   216  system_stm32f4xx.o(i.SetSysClock)
    i.SysTick_Handler                        0x0800250c   Section        0  port.o(i.SysTick_Handler)
    i.SystemInit                             0x08002540   Section        0  system_stm32f4xx.o(i.SystemInit)
    i.TIM3_IRQHandler                        0x080025a8   Section        0  pwm_ab.o(i.TIM3_IRQHandler)
    i.USART_init_myfunc                      0x080025c8   Section        0  uart_output.o(i.USART_init_myfunc)
    i.USART_send_my_string                   0x0800265c   Section        0  uart_output.o(i.USART_send_my_string)
    i.__ARM_fpclassify                       0x080026a0   Section        0  fpclassify.o(i.__ARM_fpclassify)
    i._is_digit                              0x080026d0   Section        0  __printf_wp.o(i._is_digit)
    i.assert_failed                          0x080026de   Section        0  main.o(i.assert_failed)
    i.delay_micro_s                          0x080026e4   Section        0  utils.o(i.delay_micro_s)
    i.main                                   0x08002780   Section        0  main.o(i.main)
    i.prvAddCurrentTaskToDelayedList         0x08002858   Section        0  tasks.o(i.prvAddCurrentTaskToDelayedList)
    prvAddCurrentTaskToDelayedList           0x08002859   Thumb Code   124  tasks.o(i.prvAddCurrentTaskToDelayedList)
    i.prvAddNewTaskToReadyList               0x080028f0   Section        0  tasks.o(i.prvAddNewTaskToReadyList)
    prvAddNewTaskToReadyList                 0x080028f1   Thumb Code   126  tasks.o(i.prvAddNewTaskToReadyList)
    i.prvCheckTasksWaitingTermination        0x08002988   Section        0  tasks.o(i.prvCheckTasksWaitingTermination)
    prvCheckTasksWaitingTermination          0x08002989   Thumb Code     2  tasks.o(i.prvCheckTasksWaitingTermination)
    i.prvCopyDataFromQueue                   0x0800298a   Section        0  queue.o(i.prvCopyDataFromQueue)
    prvCopyDataFromQueue                     0x0800298b   Thumb Code    42  queue.o(i.prvCopyDataFromQueue)
    i.prvCopyDataToQueue                     0x080029b4   Section        0  queue.o(i.prvCopyDataToQueue)
    prvCopyDataToQueue                       0x080029b5   Thumb Code   124  queue.o(i.prvCopyDataToQueue)
    i.prvIdleTask                            0x08002a30   Section        0  tasks.o(i.prvIdleTask)
    prvIdleTask                              0x08002a31   Thumb Code    24  tasks.o(i.prvIdleTask)
    i.prvInitialiseNewQueue                  0x08002a4c   Section        0  queue.o(i.prvInitialiseNewQueue)
    prvInitialiseNewQueue                    0x08002a4d   Thumb Code    38  queue.o(i.prvInitialiseNewQueue)
    i.prvInitialiseNewTask                   0x08002a74   Section        0  tasks.o(i.prvInitialiseNewTask)
    prvInitialiseNewTask                     0x08002a75   Thumb Code   180  tasks.o(i.prvInitialiseNewTask)
    i.prvInitialiseTaskLists                 0x08002b40   Section        0  tasks.o(i.prvInitialiseTaskLists)
    prvInitialiseTaskLists                   0x08002b41   Thumb Code    64  tasks.o(i.prvInitialiseTaskLists)
    i.prvIsQueueEmpty                        0x08002b9c   Section        0  queue.o(i.prvIsQueueEmpty)
    prvIsQueueEmpty                          0x08002b9d   Thumb Code    26  queue.o(i.prvIsQueueEmpty)
    i.prvIsQueueFull                         0x08002bb6   Section        0  queue.o(i.prvIsQueueFull)
    prvIsQueueFull                           0x08002bb7   Thumb Code    30  queue.o(i.prvIsQueueFull)
    i.prvResetNextTaskUnblockTime            0x08002bd4   Section        0  tasks.o(i.prvResetNextTaskUnblockTime)
    prvResetNextTaskUnblockTime              0x08002bd5   Thumb Code    42  tasks.o(i.prvResetNextTaskUnblockTime)
    i.prvTaskCheckFreeStackSpace             0x08002c08   Section        0  tasks.o(i.prvTaskCheckFreeStackSpace)
    prvTaskCheckFreeStackSpace               0x08002c09   Thumb Code    22  tasks.o(i.prvTaskCheckFreeStackSpace)
    i.prvTaskExitError                       0x08002c20   Section        0  port.o(i.prvTaskExitError)
    prvTaskExitError                         0x08002c21   Thumb Code    48  port.o(i.prvTaskExitError)
    i.prvUnlockQueue                         0x08002c68   Section        0  queue.o(i.prvUnlockQueue)
    prvUnlockQueue                           0x08002c69   Thumb Code   126  queue.o(i.prvUnlockQueue)
    i.pvPortMalloc                           0x08002ce8   Section        0  heap_1.o(i.pvPortMalloc)
    i.pvTaskIncrementMutexHeldCount          0x08002d58   Section        0  tasks.o(i.pvTaskIncrementMutexHeldCount)
    i.pxPortInitialiseStack                  0x08002d78   Section        0  port.o(i.pxPortInitialiseStack)
    i.uxListRemove                           0x08002da4   Section        0  list.o(i.uxListRemove)
    i.uxTaskGetStackHighWaterMark            0x08002dcc   Section        0  tasks.o(i.uxTaskGetStackHighWaterMark)
    i.vAssertCalled                          0x08002df4   Section        0  main.o(i.vAssertCalled)
    i.vListInitialise                        0x08002e4c   Section        0  list.o(i.vListInitialise)
    i.vListInitialiseItem                    0x08002e66   Section        0  list.o(i.vListInitialiseItem)
    i.vListInsert                            0x08002e6c   Section        0  list.o(i.vListInsert)
    i.vListInsertEnd                         0x08002ea0   Section        0  list.o(i.vListInsertEnd)
    i.vOrientation_task                      0x08002eb8   Section        0  orientation_task.o(i.vOrientation_task)
    i.vPortEnterCritical                     0x080033bc   Section        0  port.o(i.vPortEnterCritical)
    i.vPortExitCritical                      0x0800341c   Section        0  port.o(i.vPortExitCritical)
    i.vPortFree                              0x08003464   Section        0  heap_1.o(i.vPortFree)
    i.vPortSetupTimerInterrupt               0x08003494   Section        0  port.o(i.vPortSetupTimerInterrupt)
    i.vTask1                                 0x080034a8   Section        0  main.o(i.vTask1)
    i.vTaskDelay                             0x080034d0   Section        0  tasks.o(i.vTaskDelay)
    i.vTaskMissedYield                       0x08003538   Section        0  tasks.o(i.vTaskMissedYield)
    i.vTaskPlaceOnEventList                  0x08003544   Section        0  tasks.o(i.vTaskPlaceOnEventList)
    i.vTaskPriorityInherit                   0x08003588   Section        0  tasks.o(i.vTaskPriorityInherit)
    i.vTaskSetTimeOutState                   0x08003638   Section        0  tasks.o(i.vTaskSetTimeOutState)
    i.vTaskStartScheduler                    0x08003678   Section        0  tasks.o(i.vTaskStartScheduler)
    i.vTaskSuspendAll                        0x0800370c   Section        0  tasks.o(i.vTaskSuspendAll)
    i.vTaskSwitchContext                     0x0800371c   Section        0  tasks.o(i.vTaskSwitchContext)
    i.xPortStartScheduler                    0x080037b4   Section        0  port.o(i.xPortStartScheduler)
    i.xQueueGenericCreate                    0x080038dc   Section        0  queue.o(i.xQueueGenericCreate)
    i.xQueueGenericReceive                   0x08003940   Section        0  queue.o(i.xQueueGenericReceive)
    i.xQueueGenericReset                     0x08003ad0   Section        0  queue.o(i.xQueueGenericReset)
    i.xQueueGenericSend                      0x08003b5c   Section        0  queue.o(i.xQueueGenericSend)
    i.xTaskCheckForTimeOut                   0x08003cc8   Section        0  tasks.o(i.xTaskCheckForTimeOut)
    i.xTaskCreate                            0x08003d58   Section        0  tasks.o(i.xTaskCreate)
    i.xTaskGetSchedulerState                 0x08003db8   Section        0  tasks.o(i.xTaskGetSchedulerState)
    i.xTaskIncrementTick                     0x08003dd8   Section        0  tasks.o(i.xTaskIncrementTick)
    i.xTaskPriorityDisinherit                0x08003ef0   Section        0  tasks.o(i.xTaskPriorityDisinherit)
    i.xTaskRemoveFromEventList               0x08003fb8   Section        0  tasks.o(i.xTaskRemoveFromEventList)
    i.xTaskResumeAll                         0x0800405c   Section        0  tasks.o(i.xTaskResumeAll)
    locale$$code                             0x08004158   Section       44  lc_numeric_c.o(locale$$code)
    x$fpl$ddiv                               0x08004184   Section      688  ddiv.o(x$fpl$ddiv)
    $v0                                      0x08004184   Number         0  ddiv.o(x$fpl$ddiv)
    ddiv_entry                               0x0800418b   Thumb Code     0  ddiv.o(x$fpl$ddiv)
    x$fpl$dfixu                              0x08004434   Section       90  dfixu.o(x$fpl$dfixu)
    $v0                                      0x08004434   Number         0  dfixu.o(x$fpl$dfixu)
    x$fpl$dfltu                              0x0800448e   Section       38  dflt_clz.o(x$fpl$dfltu)
    $v0                                      0x0800448e   Number         0  dflt_clz.o(x$fpl$dfltu)
    x$fpl$dmul                               0x080044b4   Section      340  dmul.o(x$fpl$dmul)
    $v0                                      0x080044b4   Number         0  dmul.o(x$fpl$dmul)
    x$fpl$dnaninf                            0x08004608   Section      156  dnaninf.o(x$fpl$dnaninf)
    $v0                                      0x08004608   Number         0  dnaninf.o(x$fpl$dnaninf)
    x$fpl$dretinf                            0x080046a4   Section       12  dretinf.o(x$fpl$dretinf)
    $v0                                      0x080046a4   Number         0  dretinf.o(x$fpl$dretinf)
    x$fpl$f2d                                0x080046b0   Section       86  f2d.o(x$fpl$f2d)
    $v0                                      0x080046b0   Number         0  f2d.o(x$fpl$f2d)
    x$fpl$fnaninf                            0x08004706   Section      140  fnaninf.o(x$fpl$fnaninf)
    $v0                                      0x08004706   Number         0  fnaninf.o(x$fpl$fnaninf)
    x$fpl$fpinit                             0x08004792   Section       10  fpinit.o(x$fpl$fpinit)
    $v0                                      0x08004792   Number         0  fpinit.o(x$fpl$fpinit)
    x$fpl$printf1                            0x0800479c   Section        4  printf1.o(x$fpl$printf1)
    $v0                                      0x0800479c   Number         0  printf1.o(x$fpl$printf1)
    .constdata                               0x080047a0   Section       20  main.o(.constdata)
    x$fpl$usenofp                            0x080047a0   Section        0  usenofp.o(x$fpl$usenofp)
    .constdata                               0x080047b4   Section     3070  spi_adns-9800.o(.constdata)
    .constdata                               0x080053b2   Section       17  __printf_flags_wp.o(.constdata)
    maptable                                 0x080053b2   Data          17  __printf_flags_wp.o(.constdata)
    .constdata                               0x080053c4   Section      148  bigflt0.o(.constdata)
    tenpwrs_x                                0x080053c4   Data          60  bigflt0.o(.constdata)
    tenpwrs_i                                0x08005400   Data          64  bigflt0.o(.constdata)
    locale$$data                             0x08005478   Section       28  lc_numeric_c.o(locale$$data)
    __lcnum_c_name                           0x0800547c   Data           2  lc_numeric_c.o(locale$$data)
    __lcnum_c_start                          0x08005484   Data           0  lc_numeric_c.o(locale$$data)
    __lcnum_c_point                          0x08005490   Data           0  lc_numeric_c.o(locale$$data)
    __lcnum_c_thousands                      0x08005492   Data           0  lc_numeric_c.o(locale$$data)
    __lcnum_c_grouping                       0x08005493   Data           0  lc_numeric_c.o(locale$$data)
    __lcnum_c_end                            0x08005494   Data           0  lc_numeric_c.o(locale$$data)
    .data                                    0x20000000   Section       20  main.o(.data)
    .data                                    0x20000014   Section       20  system_stm32f4xx.o(.data)
    .data                                    0x20000028   Section        8  heap_1.o(.data)
    xNextFreeByte                            0x20000028   Data           4  heap_1.o(.data)
    pucAlignedHeap                           0x2000002c   Data           4  heap_1.o(.data)
    .data                                    0x20000030   Section       12  port.o(.data)
    uxCriticalNesting                        0x20000030   Data           4  port.o(.data)
    ucMaxSysCallPriority                     0x20000034   Data           1  port.o(.data)
    ulMaxPRIGROUPValue                       0x20000038   Data           4  port.o(.data)
    .data                                    0x2000003c   Section       56  tasks.o(.data)
    pxDelayedTaskList                        0x20000040   Data           4  tasks.o(.data)
    pxOverflowDelayedTaskList                0x20000044   Data           4  tasks.o(.data)
    uxCurrentNumberOfTasks                   0x20000048   Data           4  tasks.o(.data)
    xTickCount                               0x2000004c   Data           4  tasks.o(.data)
    uxTopReadyPriority                       0x20000050   Data           4  tasks.o(.data)
    xSchedulerRunning                        0x20000054   Data           4  tasks.o(.data)
    uxPendedTicks                            0x20000058   Data           4  tasks.o(.data)
    xYieldPending                            0x2000005c   Data           4  tasks.o(.data)
    xNumOfOverflows                          0x20000060   Data           4  tasks.o(.data)
    uxTaskNumber                             0x20000064   Data           4  tasks.o(.data)
    xNextTaskUnblockTime                     0x20000068   Data           4  tasks.o(.data)
    xIdleTaskHandle                          0x2000006c   Data           4  tasks.o(.data)
    uxSchedulerSuspended                     0x20000070   Data           4  tasks.o(.data)
    .data                                    0x20000074   Section        9  pwm_ab.o(.data)
    .bss                                     0x20000080   Section    122880  heap_1.o(.bss)
    ucHeap                                   0x20000080   Data       122880  heap_1.o(.bss)
    .bss                                     0x2001e080   Section      180  tasks.o(.bss)
    pxReadyTasksLists                        0x2001e080   Data         100  tasks.o(.bss)
    xDelayedTaskList1                        0x2001e0e4   Data          20  tasks.o(.bss)
    xDelayedTaskList2                        0x2001e0f8   Data          20  tasks.o(.bss)
    xPendingReadyList                        0x2001e10c   Data          20  tasks.o(.bss)
    xSuspendedTaskList                       0x2001e120   Data          20  tasks.o(.bss)
    .bss                                     0x2001e134   Section       96  libspace.o(.bss)
    HEAP                                     0x2001e198   Section      512  startup_stm32f411xe.o(HEAP)
    Heap_Mem                                 0x2001e198   Data         512  startup_stm32f411xe.o(HEAP)
    STACK                                    0x2001e398   Section     1024  startup_stm32f411xe.o(STACK)
    Stack_Mem                                0x2001e398   Data        1024  startup_stm32f411xe.o(STACK)
    __initial_sp                             0x2001e798   Data           0  startup_stm32f411xe.o(STACK)

    Global Symbols

    Symbol Name                              Value     Ov Type        Size  Object(Section)

    BuildAttributes$$THM_ISAv4$E$P$D$K$B$S$7EM$VFPi3$EXTD16$VFPS$VFMA$PE$A:L22UL41UL21$X:L11$S22US41US21$IEEE1$IW$USESV6$~STKCKD$USESV7$~SHL$OTIME$ROPI$IEEEJ$EBA8$UX$STANDARDLIB$REQ8$PRES8$EABIv2 0x00000000   Number         0  anon$$obj.o ABSOLUTE
    __ARM_use_no_argv                        0x00000000   Number         0  main.o ABSOLUTE
    _printf_flags                            0x00000000   Number         0  printf_stubs.o ABSOLUTE
    _printf_return_value                     0x00000000   Number         0  printf_stubs.o ABSOLUTE
    _printf_sizespec                         0x00000000   Number         0  printf_stubs.o ABSOLUTE
    _printf_widthprec                        0x00000000   Number         0  printf_stubs.o ABSOLUTE
    __ARM_exceptions_init                     - Undefined Weak Reference
    __alloca_initialize                       - Undefined Weak Reference
    __arm_preinit_                            - Undefined Weak Reference
    __cpp_initialize__aeabi_                  - Undefined Weak Reference
    __cxa_finalize                            - Undefined Weak Reference
    __sigvec_lookup                           - Undefined Weak Reference
    _atexit_init                              - Undefined Weak Reference
    _call_atexit_fns                          - Undefined Weak Reference
    _clock_init                               - Undefined Weak Reference
    _fp_trap_init                             - Undefined Weak Reference
    _fp_trap_shutdown                         - Undefined Weak Reference
    _get_lc_collate                           - Undefined Weak Reference
    _get_lc_ctype                             - Undefined Weak Reference
    _get_lc_monetary                          - Undefined Weak Reference
    _get_lc_time                              - Undefined Weak Reference
    _getenv_init                              - Undefined Weak Reference
    _handle_redirection                       - Undefined Weak Reference
    _init_alloc                               - Undefined Weak Reference
    _init_user_alloc                          - Undefined Weak Reference
    _initio                                   - Undefined Weak Reference
    _printf_mbtowc                            - Undefined Weak Reference
    _printf_truncate_signed                   - Undefined Weak Reference
    _printf_truncate_unsigned                 - Undefined Weak Reference
    _rand_init                                - Undefined Weak Reference
    _signal_finish                            - Undefined Weak Reference
    _signal_init                              - Undefined Weak Reference
    _terminate_alloc                          - Undefined Weak Reference
    _terminate_user_alloc                     - Undefined Weak Reference
    _terminateio                              - Undefined Weak Reference
    __Vectors_Size                           0x00000198   Number         0  startup_stm32f411xe.o ABSOLUTE
    __Vectors                                0x08000000   Data           4  startup_stm32f411xe.o(RESET)
    __Vectors_End                            0x08000198   Data           0  startup_stm32f411xe.o(RESET)
    __main                                   0x08000199   Thumb Code     8  __main.o(!!!main)
    __scatterload                            0x080001a1   Thumb Code     0  __scatter.o(!!!scatter)
    __scatterload_rt2                        0x080001a1   Thumb Code    44  __scatter.o(!!!scatter)
    __scatterload_rt2_thumb_only             0x080001a1   Thumb Code     0  __scatter.o(!!!scatter)
    __scatterload_null                       0x080001af   Thumb Code     0  __scatter.o(!!!scatter)
    __scatterload_copy                       0x080001d5   Thumb Code    26  __scatter_copy.o(!!handler_copy)
    __scatterload_zeroinit                   0x080001f1   Thumb Code    28  __scatter_zi.o(!!handler_zi)
    _printf_f                                0x0800020d   Thumb Code     0  _printf_f.o(.ARM.Collect$$_printf_percent$$00000003)
    _printf_percent                          0x0800020d   Thumb Code     0  _printf_percent.o(.ARM.Collect$$_printf_percent$$00000000)
    _printf_i                                0x08000213   Thumb Code     0  _printf_i.o(.ARM.Collect$$_printf_percent$$00000008)
    _printf_d                                0x08000219   Thumb Code     0  _printf_d.o(.ARM.Collect$$_printf_percent$$00000009)
    _printf_u                                0x0800021f   Thumb Code     0  _printf_u.o(.ARM.Collect$$_printf_percent$$0000000A)
    _printf_s                                0x08000225   Thumb Code     0  _printf_s.o(.ARM.Collect$$_printf_percent$$00000014)
    _printf_percent_end                      0x0800022b   Thumb Code     0  _printf_percent_end.o(.ARM.Collect$$_printf_percent$$00000017)
    __rt_lib_init                            0x0800022f   Thumb Code     0  libinit.o(.ARM.Collect$$libinit$$00000000)
    __rt_lib_init_fp_1                       0x08000231   Thumb Code     0  libinit2.o(.ARM.Collect$$libinit$$00000001)
    __rt_lib_init_heap_1                     0x08000235   Thumb Code     0  libinit2.o(.ARM.Collect$$libinit$$0000000A)
    __rt_lib_init_lc_common                  0x08000235   Thumb Code     0  libinit2.o(.ARM.Collect$$libinit$$0000000F)
    __rt_lib_init_preinit_1                  0x08000235   Thumb Code     0  libinit2.o(.ARM.Collect$$libinit$$00000004)
    __rt_lib_init_rand_1                     0x08000235   Thumb Code     0  libinit2.o(.ARM.Collect$$libinit$$0000000E)
    __rt_lib_init_user_alloc_1               0x08000235   Thumb Code     0  libinit2.o(.ARM.Collect$$libinit$$0000000C)
    __rt_lib_init_lc_collate_1               0x0800023b   Thumb Code     0  libinit2.o(.ARM.Collect$$libinit$$00000011)
    __rt_lib_init_lc_ctype_1                 0x0800023b   Thumb Code     0  libinit2.o(.ARM.Collect$$libinit$$00000013)
    __rt_lib_init_lc_monetary_1              0x0800023b   Thumb Code     0  libinit2.o(.ARM.Collect$$libinit$$00000015)
    __rt_lib_init_lc_numeric_2               0x0800023b   Thumb Code     0  libinit2.o(.ARM.Collect$$libinit$$00000016)
    __rt_lib_init_alloca_1                   0x08000245   Thumb Code     0  libinit2.o(.ARM.Collect$$libinit$$0000002E)
    __rt_lib_init_argv_1                     0x08000245   Thumb Code     0  libinit2.o(.ARM.Collect$$libinit$$0000002C)
    __rt_lib_init_atexit_1                   0x08000245   Thumb Code     0  libinit2.o(.ARM.Collect$$libinit$$0000001B)
    __rt_lib_init_clock_1                    0x08000245   Thumb Code     0  libinit2.o(.ARM.Collect$$libinit$$00000021)
    __rt_lib_init_cpp_1                      0x08000245   Thumb Code     0  libinit2.o(.ARM.Collect$$libinit$$00000032)
    __rt_lib_init_exceptions_1               0x08000245   Thumb Code     0  libinit2.o(.ARM.Collect$$libinit$$00000030)
    __rt_lib_init_fp_trap_1                  0x08000245   Thumb Code     0  libinit2.o(.ARM.Collect$$libinit$$0000001F)
    __rt_lib_init_getenv_1                   0x08000245   Thumb Code     0  libinit2.o(.ARM.Collect$$libinit$$00000023)
    __rt_lib_init_lc_numeric_1               0x08000245   Thumb Code     0  libinit2.o(.ARM.Collect$$libinit$$00000017)
    __rt_lib_init_lc_time_1                  0x08000245   Thumb Code     0  libinit2.o(.ARM.Collect$$libinit$$00000019)
    __rt_lib_init_return                     0x08000245   Thumb Code     0  libinit2.o(.ARM.Collect$$libinit$$00000033)
    __rt_lib_init_signal_1                   0x08000245   Thumb Code     0  libinit2.o(.ARM.Collect$$libinit$$0000001D)
    __rt_lib_init_stdio_1                    0x08000245   Thumb Code     0  libinit2.o(.ARM.Collect$$libinit$$00000025)
    __rt_lib_shutdown                        0x08000247   Thumb Code     0  libshutdown.o(.ARM.Collect$$libshutdown$$00000000)
    __rt_lib_shutdown_cpp_1                  0x08000249   Thumb Code     0  libshutdown2.o(.ARM.Collect$$libshutdown$$00000002)
    __rt_lib_shutdown_fp_trap_1              0x08000249   Thumb Code     0  libshutdown2.o(.ARM.Collect$$libshutdown$$00000007)
    __rt_lib_shutdown_heap_1                 0x08000249   Thumb Code     0  libshutdown2.o(.ARM.Collect$$libshutdown$$0000000F)
    __rt_lib_shutdown_return                 0x08000249   Thumb Code     0  libshutdown2.o(.ARM.Collect$$libshutdown$$00000010)
    __rt_lib_shutdown_signal_1               0x08000249   Thumb Code     0  libshutdown2.o(.ARM.Collect$$libshutdown$$0000000A)
    __rt_lib_shutdown_stdio_1                0x08000249   Thumb Code     0  libshutdown2.o(.ARM.Collect$$libshutdown$$00000004)
    __rt_lib_shutdown_user_alloc_1           0x08000249   Thumb Code     0  libshutdown2.o(.ARM.Collect$$libshutdown$$0000000C)
    __rt_entry                               0x0800024b   Thumb Code     0  __rtentry.o(.ARM.Collect$$rtentry$$00000000)
    __rt_entry_presh_1                       0x0800024b   Thumb Code     0  __rtentry2.o(.ARM.Collect$$rtentry$$00000002)
    __rt_entry_sh                            0x0800024b   Thumb Code     0  __rtentry4.o(.ARM.Collect$$rtentry$$00000004)
    __rt_entry_li                            0x08000251   Thumb Code     0  __rtentry2.o(.ARM.Collect$$rtentry$$0000000A)
    __rt_entry_postsh_1                      0x08000251   Thumb Code     0  __rtentry2.o(.ARM.Collect$$rtentry$$00000009)
    __rt_entry_main                          0x08000255   Thumb Code     0  __rtentry2.o(.ARM.Collect$$rtentry$$0000000D)
    __rt_entry_postli_1                      0x08000255   Thumb Code     0  __rtentry2.o(.ARM.Collect$$rtentry$$0000000C)
    __rt_exit                                0x0800025d   Thumb Code     0  rtexit.o(.ARM.Collect$$rtexit$$00000000)
    __rt_exit_ls                             0x0800025f   Thumb Code     0  rtexit2.o(.ARM.Collect$$rtexit$$00000003)
    __rt_exit_prels_1                        0x0800025f   Thumb Code     0  rtexit2.o(.ARM.Collect$$rtexit$$00000002)
    __rt_exit_exit                           0x08000263   Thumb Code     0  rtexit2.o(.ARM.Collect$$rtexit$$00000004)
    SVC_Handler                              0x08000269   Thumb Code    28  port.o(.emb_text)
    __asm___6_port_c_39a90d8d__prvStartFirstTask 0x08000289   Thumb Code    28  port.o(.emb_text)
    __asm___6_port_c_39a90d8d__prvEnableVFP  0x080002a9   Thumb Code    16  port.o(.emb_text)
    PendSV_Handler                           0x080002bd   Thumb Code    88  port.o(.emb_text)
    vPortGetIPSR                             0x08000319   Thumb Code     6  port.o(.emb_text)
    Reset_Handler                            0x08000321   Thumb Code     8  startup_stm32f411xe.o(.text)
    NMI_Handler                              0x08000329   Thumb Code     2  startup_stm32f411xe.o(.text)
    HardFault_Handler                        0x0800032b   Thumb Code     2  startup_stm32f411xe.o(.text)
    MemManage_Handler                        0x0800032d   Thumb Code     2  startup_stm32f411xe.o(.text)
    BusFault_Handler                         0x0800032f   Thumb Code     2  startup_stm32f411xe.o(.text)
    UsageFault_Handler                       0x08000331   Thumb Code     2  startup_stm32f411xe.o(.text)
    DebugMon_Handler                         0x08000335   Thumb Code     2  startup_stm32f411xe.o(.text)
    ADC_IRQHandler                           0x0800033b   Thumb Code     0  startup_stm32f411xe.o(.text)
    DMA1_Stream0_IRQHandler                  0x0800033b   Thumb Code     0  startup_stm32f411xe.o(.text)
    DMA1_Stream1_IRQHandler                  0x0800033b   Thumb Code     0  startup_stm32f411xe.o(.text)
    DMA1_Stream2_IRQHandler                  0x0800033b   Thumb Code     0  startup_stm32f411xe.o(.text)
    DMA1_Stream3_IRQHandler                  0x0800033b   Thumb Code     0  startup_stm32f411xe.o(.text)
    DMA1_Stream4_IRQHandler                  0x0800033b   Thumb Code     0  startup_stm32f411xe.o(.text)
    DMA1_Stream5_IRQHandler                  0x0800033b   Thumb Code     0  startup_stm32f411xe.o(.text)
    DMA1_Stream6_IRQHandler                  0x0800033b   Thumb Code     0  startup_stm32f411xe.o(.text)
    DMA1_Stream7_IRQHandler                  0x0800033b   Thumb Code     0  startup_stm32f411xe.o(.text)
    DMA2_Stream0_IRQHandler                  0x0800033b   Thumb Code     0  startup_stm32f411xe.o(.text)
    DMA2_Stream1_IRQHandler                  0x0800033b   Thumb Code     0  startup_stm32f411xe.o(.text)
    DMA2_Stream2_IRQHandler                  0x0800033b   Thumb Code     0  startup_stm32f411xe.o(.text)
    DMA2_Stream3_IRQHandler                  0x0800033b   Thumb Code     0  startup_stm32f411xe.o(.text)
    DMA2_Stream4_IRQHandler                  0x0800033b   Thumb Code     0  startup_stm32f411xe.o(.text)
    DMA2_Stream5_IRQHandler                  0x0800033b   Thumb Code     0  startup_stm32f411xe.o(.text)
    DMA2_Stream6_IRQHandler                  0x0800033b   Thumb Code     0  startup_stm32f411xe.o(.text)
    DMA2_Stream7_IRQHandler                  0x0800033b   Thumb Code     0  startup_stm32f411xe.o(.text)
    EXTI0_IRQHandler                         0x0800033b   Thumb Code     0  startup_stm32f411xe.o(.text)
    EXTI1_IRQHandler                         0x0800033b   Thumb Code     0  startup_stm32f411xe.o(.text)
    EXTI2_IRQHandler                         0x0800033b   Thumb Code     0  startup_stm32f411xe.o(.text)
    EXTI3_IRQHandler                         0x0800033b   Thumb Code     0  startup_stm32f411xe.o(.text)
    EXTI4_IRQHandler                         0x0800033b   Thumb Code     0  startup_stm32f411xe.o(.text)
    EXTI9_5_IRQHandler                       0x0800033b   Thumb Code     0  startup_stm32f411xe.o(.text)
    FLASH_IRQHandler                         0x0800033b   Thumb Code     0  startup_stm32f411xe.o(.text)
    FPU_IRQHandler                           0x0800033b   Thumb Code     0  startup_stm32f411xe.o(.text)
    I2C1_ER_IRQHandler                       0x0800033b   Thumb Code     0  startup_stm32f411xe.o(.text)
    I2C1_EV_IRQHandler                       0x0800033b   Thumb Code     0  startup_stm32f411xe.o(.text)
    I2C2_ER_IRQHandler                       0x0800033b   Thumb Code     0  startup_stm32f411xe.o(.text)
    I2C2_EV_IRQHandler                       0x0800033b   Thumb Code     0  startup_stm32f411xe.o(.text)
    I2C3_ER_IRQHandler                       0x0800033b   Thumb Code     0  startup_stm32f411xe.o(.text)
    I2C3_EV_IRQHandler                       0x0800033b   Thumb Code     0  startup_stm32f411xe.o(.text)
    OTG_FS_IRQHandler                        0x0800033b   Thumb Code     0  startup_stm32f411xe.o(.text)
    OTG_FS_WKUP_IRQHandler                   0x0800033b   Thumb Code     0  startup_stm32f411xe.o(.text)
    PVD_IRQHandler                           0x0800033b   Thumb Code     0  startup_stm32f411xe.o(.text)
    RCC_IRQHandler                           0x0800033b   Thumb Code     0  startup_stm32f411xe.o(.text)
    RTC_Alarm_IRQHandler                     0x0800033b   Thumb Code     0  startup_stm32f411xe.o(.text)
    RTC_WKUP_IRQHandler                      0x0800033b   Thumb Code     0  startup_stm32f411xe.o(.text)
    SDIO_IRQHandler                          0x0800033b   Thumb Code     0  startup_stm32f411xe.o(.text)
    SPI1_IRQHandler                          0x0800033b   Thumb Code     0  startup_stm32f411xe.o(.text)
    SPI2_IRQHandler                          0x0800033b   Thumb Code     0  startup_stm32f411xe.o(.text)
    SPI3_IRQHandler                          0x0800033b   Thumb Code     0  startup_stm32f411xe.o(.text)
    SPI4_IRQHandler                          0x0800033b   Thumb Code     0  startup_stm32f411xe.o(.text)
    SPI5_IRQHandler                          0x0800033b   Thumb Code     0  startup_stm32f411xe.o(.text)
    TAMP_STAMP_IRQHandler                    0x0800033b   Thumb Code     0  startup_stm32f411xe.o(.text)
    TIM1_BRK_TIM9_IRQHandler                 0x0800033b   Thumb Code     0  startup_stm32f411xe.o(.text)
    TIM1_CC_IRQHandler                       0x0800033b   Thumb Code     0  startup_stm32f411xe.o(.text)
    TIM1_TRG_COM_TIM11_IRQHandler            0x0800033b   Thumb Code     0  startup_stm32f411xe.o(.text)
    TIM1_UP_TIM10_IRQHandler                 0x0800033b   Thumb Code     0  startup_stm32f411xe.o(.text)
    TIM2_IRQHandler                          0x0800033b   Thumb Code     0  startup_stm32f411xe.o(.text)
    TIM4_IRQHandler                          0x0800033b   Thumb Code     0  startup_stm32f411xe.o(.text)
    TIM5_IRQHandler                          0x0800033b   Thumb Code     0  startup_stm32f411xe.o(.text)
    USART1_IRQHandler                        0x0800033b   Thumb Code     0  startup_stm32f411xe.o(.text)
    USART2_IRQHandler                        0x0800033b   Thumb Code     0  startup_stm32f411xe.o(.text)
    USART6_IRQHandler                        0x0800033b   Thumb Code     0  startup_stm32f411xe.o(.text)
    WWDG_IRQHandler                          0x0800033b   Thumb Code     0  startup_stm32f411xe.o(.text)
    __user_initial_stackheap                 0x0800033d   Thumb Code     0  startup_stm32f411xe.o(.text)
    __2sprintf                               0x08000361   Thumb Code    34  noretval__2sprintf.o(.text)
    _printf_pre_padding                      0x08000389   Thumb Code    44  _printf_pad.o(.text)
    _printf_post_padding                     0x080003b5   Thumb Code    34  _printf_pad.o(.text)
    _printf_str                              0x080003d7   Thumb Code    82  _printf_str.o(.text)
    _printf_int_dec                          0x08000429   Thumb Code   104  _printf_dec.o(.text)
    __printf                                 0x080004a1   Thumb Code   308  __printf_flags_wp.o(.text)
    __aeabi_memcpy                           0x080005d9   Thumb Code     0  rt_memcpy_v6.o(.text)
    __rt_memcpy                              0x080005d9   Thumb Code   138  rt_memcpy_v6.o(.text)
    _memcpy_lastbytes                        0x0800063f   Thumb Code     0  rt_memcpy_v6.o(.text)
    __aeabi_memcpy4                          0x08000663   Thumb Code     0  rt_memcpy_w.o(.text)
    __aeabi_memcpy8                          0x08000663   Thumb Code     0  rt_memcpy_w.o(.text)
    __rt_memcpy_w                            0x08000663   Thumb Code   100  rt_memcpy_w.o(.text)
    _memcpy_lastbytes_aligned                0x080006ab   Thumb Code     0  rt_memcpy_w.o(.text)
    __aeabi_memset                           0x080006c7   Thumb Code    16  aeabi_memset.o(.text)
    __use_two_region_memory                  0x080006d7   Thumb Code     2  heapauxi.o(.text)
    __rt_heap_escrow$2region                 0x080006d9   Thumb Code     2  heapauxi.o(.text)
    __rt_heap_expand$2region                 0x080006db   Thumb Code     2  heapauxi.o(.text)
    _printf_int_common                       0x080006dd   Thumb Code   178  _printf_intcommon.o(.text)
    __lib_sel_fp_printf                      0x0800078f   Thumb Code     2  _printf_fp_dec.o(.text)
    _printf_fp_dec_real                      0x0800093d   Thumb Code   620  _printf_fp_dec.o(.text)
    _printf_char_common                      0x08000bb3   Thumb Code    32  _printf_char_common.o(.text)
    _sputc                                   0x08000bd9   Thumb Code    10  _sputc.o(.text)
    _printf_cs_common                        0x08000be3   Thumb Code    20  _printf_char.o(.text)
    _printf_char                             0x08000bf7   Thumb Code    16  _printf_char.o(.text)
    _printf_string                           0x08000c07   Thumb Code     8  _printf_char.o(.text)
    __aeabi_memclr                           0x08000c0f   Thumb Code     0  rt_memclr.o(.text)
    __rt_memclr                              0x08000c0f   Thumb Code    68  rt_memclr.o(.text)
    _memset                                  0x08000c13   Thumb Code     0  rt_memclr.o(.text)
    __rt_locale                              0x08000c55   Thumb Code     8  rt_locale_intlibspace.o(.text)
    _ll_udiv10                               0x08000c5d   Thumb Code   138  lludiv10.o(.text)
    _printf_fp_infnan                        0x08000ce9   Thumb Code   112  _printf_fp_infnan.o(.text)
    _btod_etento                             0x08000d69   Thumb Code   216  bigflt0.o(.text)
    __aeabi_memclr4                          0x08000e45   Thumb Code     0  rt_memclr_w.o(.text)
    __aeabi_memclr8                          0x08000e45   Thumb Code     0  rt_memclr_w.o(.text)
    __rt_memclr_w                            0x08000e45   Thumb Code    78  rt_memclr_w.o(.text)
    _memset_w                                0x08000e49   Thumb Code     0  rt_memclr_w.o(.text)
    __user_libspace                          0x08000e95   Thumb Code     8  libspace.o(.text)
    __user_perproc_libspace                  0x08000e95   Thumb Code     0  libspace.o(.text)
    __user_perthread_libspace                0x08000e95   Thumb Code     0  libspace.o(.text)
    __user_setup_stackheap                   0x08000e9d   Thumb Code    74  sys_stackheap_outer.o(.text)
    exit                                     0x08000ee7   Thumb Code    18  exit.o(.text)
    strcmp                                   0x08000ef9   Thumb Code   128  strcmpv7m.o(.text)
    _sys_exit                                0x08000f79   Thumb Code     8  sys_exit.o(.text)
    __I$use$semihosting                      0x08000f85   Thumb Code     0  use_no_semi.o(.text)
    __use_no_semihosting_swi                 0x08000f85   Thumb Code     2  use_no_semi.o(.text)
    __semihosting_library_function           0x08000f87   Thumb Code     0  indicate_semi.o(.text)
    _btod_d2e                                0x08000f87   Thumb Code    62  btod.o(CL$$btod_d2e)
    _d2e_denorm_low                          0x08000fc5   Thumb Code    70  btod.o(CL$$btod_d2e_denorm_low)
    _d2e_norm_op1                            0x0800100b   Thumb Code    96  btod.o(CL$$btod_d2e_norm_op1)
    __btod_div_common                        0x0800106b   Thumb Code   696  btod.o(CL$$btod_div_common)
    _e2e                                     0x080013a3   Thumb Code   198  btod.o(CL$$btod_e2e)
    _btod_ediv                               0x08001469   Thumb Code    40  btod.o(CL$$btod_ediv)
    _btod_emul                               0x08001491   Thumb Code    40  btod.o(CL$$btod_emul)
    __btod_mult_common                       0x080014b9   Thumb Code   580  btod.o(CL$$btod_mult_common)
    ADNS9800_CONF_resolution                 0x080016fd   Thumb Code    70  adns-9800_drv.o(i.ADNS9800_CONF_resolution)
    ADNS9800_INFO                            0x08001743   Thumb Code    30  adns-9800_drv.o(i.ADNS9800_INFO)
    ADNS9800_OUT_movement                    0x08001761   Thumb Code   130  adns-9800_drv.o(i.ADNS9800_OUT_movement)
    ADNS9800_PWRON                           0x080017e3   Thumb Code    80  adns-9800_drv.o(i.ADNS9800_PWRON)
    ADNS9800_TST_Laser_Control               0x08001833   Thumb Code    52  adns-9800_drv.o(i.ADNS9800_TST_Laser_Control)
    ADNS9800_TST_SROM_running                0x08001867   Thumb Code    40  adns-9800_drv.o(i.ADNS9800_TST_SROM_running)
    ENC_A_init                               0x08001891   Thumb Code   238  encoder.o(i.ENC_A_init)
    ENC_A_value                              0x08001991   Thumb Code     8  encoder.o(i.ENC_A_value)
    ENC_B_init                               0x08001999   Thumb Code   214  encoder.o(i.ENC_B_init)
    ENC_B_value                              0x08001a85   Thumb Code     6  encoder.o(i.ENC_B_value)
    EXTI15_10_IRQHandler                     0x08001a91   Thumb Code    32  main.o(i.EXTI15_10_IRQHandler)
    IRQ_EXTI_13_switch_on                    0x08001abd   Thumb Code    96  main.o(i.IRQ_EXTI_13_switch_on)
    Init_SPI1_for_ADNS9800                   0x08001b35   Thumb Code   222  spi_adns-9800.o(i.Init_SPI1_for_ADNS9800)
    Lib_Error_Message                        0x08001c59   Thumb Code    46  main.o(i.Lib_Error_Message)
    PWM_disable                              0x08001cad   Thumb Code    56  pwm_ab.o(i.PWM_disable)
    PWM_enable                               0x08001d19   Thumb Code    54  pwm_ab.o(i.PWM_enable)
    PWM_init                                 0x08001d85   Thumb Code   526  pwm_ab.o(i.PWM_init)
    PWM_set_value                            0x08001fe1   Thumb Code   342  pwm_ab.o(i.PWM_set_value)
    RCC_AHB1PeriphClockCmd                   0x08002181   Thumb Code    70  stm32f4xx_rcc.o(i.RCC_AHB1PeriphClockCmd)
    SPI_read_byte_ADNS9800                   0x08002201   Thumb Code   106  spi_adns-9800.o(i.SPI_read_byte_ADNS9800)
    SPI_write_byte_ADNS9800                  0x08002279   Thumb Code   108  spi_adns-9800.o(i.SPI_write_byte_ADNS9800)
    SROM_Download_ADNS9800                   0x080022f1   Thumb Code   286  spi_adns-9800.o(i.SROM_Download_ADNS9800)
    SysTick_Handler                          0x0800250d   Thumb Code    46  port.o(i.SysTick_Handler)
    SystemInit                               0x08002541   Thumb Code    88  system_stm32f4xx.o(i.SystemInit)
    TIM3_IRQHandler                          0x080025a9   Thumb Code    20  pwm_ab.o(i.TIM3_IRQHandler)
    USART_init_myfunc                        0x080025c9   Thumb Code   126  uart_output.o(i.USART_init_myfunc)
    USART_send_my_string                     0x0800265d   Thumb Code    54  uart_output.o(i.USART_send_my_string)
    __ARM_fpclassify                         0x080026a1   Thumb Code    48  fpclassify.o(i.__ARM_fpclassify)
    _is_digit                                0x080026d1   Thumb Code    14  __printf_wp.o(i._is_digit)
    assert_failed                            0x080026df   Thumb Code     4  main.o(i.assert_failed)
    delay_micro_s                            0x080026e5   Thumb Code   126  utils.o(i.delay_micro_s)
    main                                     0x08002781   Thumb Code   132  main.o(i.main)
    pvPortMalloc                             0x08002ce9   Thumb Code    96  heap_1.o(i.pvPortMalloc)
    pvTaskIncrementMutexHeldCount            0x08002d59   Thumb Code    26  tasks.o(i.pvTaskIncrementMutexHeldCount)
    pxPortInitialiseStack                    0x08002d79   Thumb Code    38  port.o(i.pxPortInitialiseStack)
    uxListRemove                             0x08002da5   Thumb Code    40  list.o(i.uxListRemove)
    uxTaskGetStackHighWaterMark              0x08002dcd   Thumb Code    34  tasks.o(i.uxTaskGetStackHighWaterMark)
    vAssertCalled                            0x08002df5   Thumb Code    46  main.o(i.vAssertCalled)
    vListInitialise                          0x08002e4d   Thumb Code    26  list.o(i.vListInitialise)
    vListInitialiseItem                      0x08002e67   Thumb Code     6  list.o(i.vListInitialiseItem)
    vListInsert                              0x08002e6d   Thumb Code    52  list.o(i.vListInsert)
    vListInsertEnd                           0x08002ea1   Thumb Code    24  list.o(i.vListInsertEnd)
    vOrientation_task                        0x08002eb9   Thumb Code   734  orientation_task.o(i.vOrientation_task)
    vPortEnterCritical                       0x080033bd   Thumb Code    66  port.o(i.vPortEnterCritical)
    vPortExitCritical                        0x0800341d   Thumb Code    46  port.o(i.vPortExitCritical)
    vPortFree                                0x08003465   Thumb Code    24  heap_1.o(i.vPortFree)
    vPortSetupTimerInterrupt                 0x08003495   Thumb Code    14  port.o(i.vPortSetupTimerInterrupt)
    vTask1                                   0x080034a9   Thumb Code    30  main.o(i.vTask1)
    vTaskDelay                               0x080034d1   Thumb Code    70  tasks.o(i.vTaskDelay)
    vTaskMissedYield                         0x08003539   Thumb Code     8  tasks.o(i.vTaskMissedYield)
    vTaskPlaceOnEventList                    0x08003545   Thumb Code    40  tasks.o(i.vTaskPlaceOnEventList)
    vTaskPriorityInherit                     0x08003589   Thumb Code   164  tasks.o(i.vTaskPriorityInherit)
    vTaskSetTimeOutState                     0x08003639   Thumb Code    30  tasks.o(i.vTaskSetTimeOutState)
    vTaskStartScheduler                      0x08003679   Thumb Code    96  tasks.o(i.vTaskStartScheduler)
    vTaskSuspendAll                          0x0800370d   Thumb Code    12  tasks.o(i.vTaskSuspendAll)
    vTaskSwitchContext                       0x0800371d   Thumb Code   108  tasks.o(i.vTaskSwitchContext)
    xPortStartScheduler                      0x080037b5   Thumb Code   248  port.o(i.xPortStartScheduler)
    xQueueGenericCreate                      0x080038dd   Thumb Code    76  queue.o(i.xQueueGenericCreate)
    xQueueGenericReceive                     0x08003941   Thumb Code   372  queue.o(i.xQueueGenericReceive)
    xQueueGenericReset                       0x08003ad1   Thumb Code   116  queue.o(i.xQueueGenericReset)
    xQueueGenericSend                        0x08003b5d   Thumb Code   334  queue.o(i.xQueueGenericSend)
    xTaskCheckForTimeOut                     0x08003cc9   Thumb Code   112  tasks.o(i.xTaskCheckForTimeOut)
    xTaskCreate                              0x08003d59   Thumb Code    96  tasks.o(i.xTaskCreate)
    xTaskGetSchedulerState                   0x08003db9   Thumb Code    24  tasks.o(i.xTaskGetSchedulerState)
    xTaskIncrementTick                       0x08003dd9   Thumb Code   218  tasks.o(i.xTaskIncrementTick)
    xTaskPriorityDisinherit                  0x08003ef1   Thumb Code   164  tasks.o(i.xTaskPriorityDisinherit)
    xTaskRemoveFromEventList                 0x08003fb9   Thumb Code   116  tasks.o(i.xTaskRemoveFromEventList)
    xTaskResumeAll                           0x0800405d   Thumb Code   194  tasks.o(i.xTaskResumeAll)
    _get_lc_numeric                          0x08004159   Thumb Code    44  lc_numeric_c.o(locale$$code)
    __aeabi_ddiv                             0x08004185   Thumb Code     0  ddiv.o(x$fpl$ddiv)
    _ddiv                                    0x08004185   Thumb Code   552  ddiv.o(x$fpl$ddiv)
    __aeabi_d2uiz                            0x08004435   Thumb Code     0  dfixu.o(x$fpl$dfixu)
    _dfixu                                   0x08004435   Thumb Code    90  dfixu.o(x$fpl$dfixu)
    __aeabi_ui2d                             0x0800448f   Thumb Code     0  dflt_clz.o(x$fpl$dfltu)
    _dfltu                                   0x0800448f   Thumb Code    38  dflt_clz.o(x$fpl$dfltu)
    __aeabi_dmul                             0x080044b5   Thumb Code     0  dmul.o(x$fpl$dmul)
    _dmul                                    0x080044b5   Thumb Code   332  dmul.o(x$fpl$dmul)
    __fpl_dnaninf                            0x08004609   Thumb Code   156  dnaninf.o(x$fpl$dnaninf)
    __fpl_dretinf                            0x080046a5   Thumb Code    12  dretinf.o(x$fpl$dretinf)
    __aeabi_f2d                              0x080046b1   Thumb Code     0  f2d.o(x$fpl$f2d)
    _f2d                                     0x080046b1   Thumb Code    86  f2d.o(x$fpl$f2d)
    __fpl_fnaninf                            0x08004707   Thumb Code   140  fnaninf.o(x$fpl$fnaninf)
    _fp_init                                 0x08004793   Thumb Code    10  fpinit.o(x$fpl$fpinit)
    __fplib_config_fpu_vfp                   0x0800479b   Thumb Code     0  fpinit.o(x$fpl$fpinit)
    __fplib_config_pureend_doubles           0x0800479b   Thumb Code     0  fpinit.o(x$fpl$fpinit)
    _printf_fp_dec                           0x0800479d   Thumb Code     4  printf1.o(x$fpl$printf1)
    __I$use$fp                               0x080047a0   Number         0  usenofp.o(x$fpl$usenofp)
    SROM                                     0x080047b4   Data        3070  spi_adns-9800.o(.constdata)
    Region$$Table$$Base                      0x08005458   Number         0  anon$$obj.o(Region$$Table)
    Region$$Table$$Limit                     0x08005478   Number         0  anon$$obj.o(Region$$Table)
    GPIO_InitStructure                       0x20000000   Data           8  main.o(.data)
    glob_var1                                0x20000008   Data           4  main.o(.data)
    xMyQueue                                 0x2000000c   Data           4  main.o(.data)
    Task1_handler                            0x20000010   Data           4  main.o(.data)
    SystemCoreClock                          0x20000014   Data           4  system_stm32f4xx.o(.data)
    AHBPrescTable                            0x20000018   Data          16  system_stm32f4xx.o(.data)
    pxCurrentTCB                             0x2000003c   Data           4  tasks.o(.data)
    max_PWM                                  0x20000074   Data           4  pwm_ab.o(.data)
    pwm_ready                                0x20000078   Data           4  pwm_ab.o(.data)
    pwm_state                                0x2000007c   Data           1  pwm_ab.o(.data)
    __libspace_start                         0x2001e134   Data          96  libspace.o(.bss)
    __temporary_stack_top$libspace           0x2001e194   Data           0  libspace.o(.bss)



==============================================================================

Memory Map of the image

  Image Entry point : 0x08000321

  Load Region LR_1 (Base: 0x08000000, Size: 0x00005514, Max: 0xffffffff, ABSOLUTE)

    Execution Region ER_RO (Base: 0x08000000, Size: 0x00005494, Max: 0xffffffff, ABSOLUTE)

    Base Addr    Size         Type   Attr      Idx    E Section Name        Object

    0x08000000   0x00000198   Data   RO          967    RESET               startup_stm32f411xe.o
    0x08000198   0x00000008   Code   RO         2062  * !!!main             c_w.l(__main.o)
    0x080001a0   0x00000034   Code   RO         2306    !!!scatter          c_w.l(__scatter.o)
    0x080001d4   0x0000001a   Code   RO         2308    !!handler_copy      c_w.l(__scatter_copy.o)
    0x080001ee   0x00000002   PAD
    0x080001f0   0x0000001c   Code   RO         2310    !!handler_zi        c_w.l(__scatter_zi.o)
    0x0800020c   0x00000000   Code   RO         2051    .ARM.Collect$$_printf_percent$$00000000  c_w.l(_printf_percent.o)
    0x0800020c   0x00000006   Code   RO         2050    .ARM.Collect$$_printf_percent$$00000003  c_w.l(_printf_f.o)
    0x08000212   0x00000006   Code   RO         2047    .ARM.Collect$$_printf_percent$$00000008  c_w.l(_printf_i.o)
    0x08000218   0x00000006   Code   RO         2048    .ARM.Collect$$_printf_percent$$00000009  c_w.l(_printf_d.o)
    0x0800021e   0x00000006   Code   RO         2049    .ARM.Collect$$_printf_percent$$0000000A  c_w.l(_printf_u.o)
    0x08000224   0x00000006   Code   RO         2046    .ARM.Collect$$_printf_percent$$00000014  c_w.l(_printf_s.o)
    0x0800022a   0x00000004   Code   RO         2095    .ARM.Collect$$_printf_percent$$00000017  c_w.l(_printf_percent_end.o)
    0x0800022e   0x00000002   Code   RO         2179    .ARM.Collect$$libinit$$00000000  c_w.l(libinit.o)
    0x08000230   0x00000004   Code   RO         2180    .ARM.Collect$$libinit$$00000001  c_w.l(libinit2.o)
    0x08000234   0x00000000   Code   RO         2183    .ARM.Collect$$libinit$$00000004  c_w.l(libinit2.o)
    0x08000234   0x00000000   Code   RO         2186    .ARM.Collect$$libinit$$0000000A  c_w.l(libinit2.o)
    0x08000234   0x00000000   Code   RO         2188    .ARM.Collect$$libinit$$0000000C  c_w.l(libinit2.o)
    0x08000234   0x00000000   Code   RO         2190    .ARM.Collect$$libinit$$0000000E  c_w.l(libinit2.o)
    0x08000234   0x00000006   Code   RO         2191    .ARM.Collect$$libinit$$0000000F  c_w.l(libinit2.o)
    0x0800023a   0x00000000   Code   RO         2193    .ARM.Collect$$libinit$$00000011  c_w.l(libinit2.o)
    0x0800023a   0x00000000   Code   RO         2195    .ARM.Collect$$libinit$$00000013  c_w.l(libinit2.o)
    0x0800023a   0x00000000   Code   RO         2197    .ARM.Collect$$libinit$$00000015  c_w.l(libinit2.o)
    0x0800023a   0x0000000a   Code   RO         2198    .ARM.Collect$$libinit$$00000016  c_w.l(libinit2.o)
    0x08000244   0x00000000   Code   RO         2199    .ARM.Collect$$libinit$$00000017  c_w.l(libinit2.o)
    0x08000244   0x00000000   Code   RO         2201    .ARM.Collect$$libinit$$00000019  c_w.l(libinit2.o)
    0x08000244   0x00000000   Code   RO         2203    .ARM.Collect$$libinit$$0000001B  c_w.l(libinit2.o)
    0x08000244   0x00000000   Code   RO         2205    .ARM.Collect$$libinit$$0000001D  c_w.l(libinit2.o)
    0x08000244   0x00000000   Code   RO         2207    .ARM.Collect$$libinit$$0000001F  c_w.l(libinit2.o)
    0x08000244   0x00000000   Code   RO         2209    .ARM.Collect$$libinit$$00000021  c_w.l(libinit2.o)
    0x08000244   0x00000000   Code   RO         2211    .ARM.Collect$$libinit$$00000023  c_w.l(libinit2.o)
    0x08000244   0x00000000   Code   RO         2213    .ARM.Collect$$libinit$$00000025  c_w.l(libinit2.o)
    0x08000244   0x00000000   Code   RO         2217    .ARM.Collect$$libinit$$0000002C  c_w.l(libinit2.o)
    0x08000244   0x00000000   Code   RO         2219    .ARM.Collect$$libinit$$0000002E  c_w.l(libinit2.o)
    0x08000244   0x00000000   Code   RO         2221    .ARM.Collect$$libinit$$00000030  c_w.l(libinit2.o)
    0x08000244   0x00000000   Code   RO         2223    .ARM.Collect$$libinit$$00000032  c_w.l(libinit2.o)
    0x08000244   0x00000002   Code   RO         2224    .ARM.Collect$$libinit$$00000033  c_w.l(libinit2.o)
    0x08000246   0x00000002   Code   RO         2254    .ARM.Collect$$libshutdown$$00000000  c_w.l(libshutdown.o)
    0x08000248   0x00000000   Code   RO         2265    .ARM.Collect$$libshutdown$$00000002  c_w.l(libshutdown2.o)
    0x08000248   0x00000000   Code   RO         2267    .ARM.Collect$$libshutdown$$00000004  c_w.l(libshutdown2.o)
    0x08000248   0x00000000   Code   RO         2270    .ARM.Collect$$libshutdown$$00000007  c_w.l(libshutdown2.o)
    0x08000248   0x00000000   Code   RO         2273    .ARM.Collect$$libshutdown$$0000000A  c_w.l(libshutdown2.o)
    0x08000248   0x00000000   Code   RO         2275    .ARM.Collect$$libshutdown$$0000000C  c_w.l(libshutdown2.o)
    0x08000248   0x00000000   Code   RO         2278    .ARM.Collect$$libshutdown$$0000000F  c_w.l(libshutdown2.o)
    0x08000248   0x00000002   Code   RO         2279    .ARM.Collect$$libshutdown$$00000010  c_w.l(libshutdown2.o)
    0x0800024a   0x00000000   Code   RO         2084    .ARM.Collect$$rtentry$$00000000  c_w.l(__rtentry.o)
    0x0800024a   0x00000000   Code   RO         2106    .ARM.Collect$$rtentry$$00000002  c_w.l(__rtentry2.o)
    0x0800024a   0x00000006   Code   RO         2118    .ARM.Collect$$rtentry$$00000004  c_w.l(__rtentry4.o)
    0x08000250   0x00000000   Code   RO         2108    .ARM.Collect$$rtentry$$00000009  c_w.l(__rtentry2.o)
    0x08000250   0x00000004   Code   RO         2109    .ARM.Collect$$rtentry$$0000000A  c_w.l(__rtentry2.o)
    0x08000254   0x00000000   Code   RO         2111    .ARM.Collect$$rtentry$$0000000C  c_w.l(__rtentry2.o)
    0x08000254   0x00000008   Code   RO         2112    .ARM.Collect$$rtentry$$0000000D  c_w.l(__rtentry2.o)
    0x0800025c   0x00000002   Code   RO         2225    .ARM.Collect$$rtexit$$00000000  c_w.l(rtexit.o)
    0x0800025e   0x00000000   Code   RO         2232    .ARM.Collect$$rtexit$$00000002  c_w.l(rtexit2.o)
    0x0800025e   0x00000004   Code   RO         2233    .ARM.Collect$$rtexit$$00000003  c_w.l(rtexit2.o)
    0x08000262   0x00000006   Code   RO         2234    .ARM.Collect$$rtexit$$00000004  c_w.l(rtexit2.o)
    0x08000268   0x000000b6   Code   RO         1157    .emb_text           port.o
    0x0800031e   0x00000002   PAD
    0x08000320   0x00000040   Code   RO          968  * .text               startup_stm32f411xe.o
    0x08000360   0x00000028   Code   RO         2016    .text               c_w.l(noretval__2sprintf.o)
    0x08000388   0x0000004e   Code   RO         2020    .text               c_w.l(_printf_pad.o)
    0x080003d6   0x00000052   Code   RO         2022    .text               c_w.l(_printf_str.o)
    0x08000428   0x00000078   Code   RO         2024    .text               c_w.l(_printf_dec.o)
    0x080004a0   0x00000138   Code   RO         2038    .text               c_w.l(__printf_flags_wp.o)
    0x080005d8   0x0000008a   Code   RO         2054    .text               c_w.l(rt_memcpy_v6.o)
    0x08000662   0x00000064   Code   RO         2056    .text               c_w.l(rt_memcpy_w.o)
    0x080006c6   0x00000010   Code   RO         2058    .text               c_w.l(aeabi_memset.o)
    0x080006d6   0x00000006   Code   RO         2060    .text               c_w.l(heapauxi.o)
    0x080006dc   0x000000b2   Code   RO         2085    .text               c_w.l(_printf_intcommon.o)
    0x0800078e   0x0000041a   Code   RO         2087    .text               c_w.l(_printf_fp_dec.o)
    0x08000ba8   0x00000030   Code   RO         2089    .text               c_w.l(_printf_char_common.o)
    0x08000bd8   0x0000000a   Code   RO         2091    .text               c_w.l(_sputc.o)
    0x08000be2   0x0000002c   Code   RO         2093    .text               c_w.l(_printf_char.o)
    0x08000c0e   0x00000044   Code   RO         2096    .text               c_w.l(rt_memclr.o)
    0x08000c52   0x00000002   PAD
    0x08000c54   0x00000008   Code   RO         2123    .text               c_w.l(rt_locale_intlibspace.o)
    0x08000c5c   0x0000008a   Code   RO         2125    .text               c_w.l(lludiv10.o)
    0x08000ce6   0x00000002   PAD
    0x08000ce8   0x00000080   Code   RO         2127    .text               c_w.l(_printf_fp_infnan.o)
    0x08000d68   0x000000dc   Code   RO         2131    .text               c_w.l(bigflt0.o)
    0x08000e44   0x0000004e   Code   RO         2159    .text               c_w.l(rt_memclr_w.o)
    0x08000e92   0x00000002   PAD
    0x08000e94   0x00000008   Code   RO         2165    .text               c_w.l(libspace.o)
    0x08000e9c   0x0000004a   Code   RO         2168    .text               c_w.l(sys_stackheap_outer.o)
    0x08000ee6   0x00000012   Code   RO         2170    .text               c_w.l(exit.o)
    0x08000ef8   0x00000080   Code   RO         2172    .text               c_w.l(strcmpv7m.o)
    0x08000f78   0x0000000c   Code   RO         2244    .text               c_w.l(sys_exit.o)
    0x08000f84   0x00000002   Code   RO         2255    .text               c_w.l(use_no_semi.o)
    0x08000f86   0x00000000   Code   RO         2257    .text               c_w.l(indicate_semi.o)
    0x08000f86   0x0000003e   Code   RO         2134    CL$$btod_d2e        c_w.l(btod.o)
    0x08000fc4   0x00000046   Code   RO         2136    CL$$btod_d2e_denorm_low  c_w.l(btod.o)
    0x0800100a   0x00000060   Code   RO         2135    CL$$btod_d2e_norm_op1  c_w.l(btod.o)
    0x0800106a   0x00000338   Code   RO         2144    CL$$btod_div_common  c_w.l(btod.o)
    0x080013a2   0x000000c6   Code   RO         2141    CL$$btod_e2e        c_w.l(btod.o)
    0x08001468   0x00000028   Code   RO         2138    CL$$btod_ediv       c_w.l(btod.o)
    0x08001490   0x00000028   Code   RO         2137    CL$$btod_emul       c_w.l(btod.o)
    0x080014b8   0x00000244   Code   RO         2143    CL$$btod_mult_common  c_w.l(btod.o)
    0x080016fc   0x00000046   Code   RO         1754    i.ADNS9800_CONF_resolution  adns-9800_drv.o
    0x08001742   0x0000001e   Code   RO         1757    i.ADNS9800_INFO     adns-9800_drv.o
    0x08001760   0x00000082   Code   RO         1758    i.ADNS9800_OUT_movement  adns-9800_drv.o
    0x080017e2   0x00000050   Code   RO         1759    i.ADNS9800_PWRON    adns-9800_drv.o
    0x08001832   0x00000034   Code   RO         1761    i.ADNS9800_TST_Laser_Control  adns-9800_drv.o
    0x08001866   0x00000028   Code   RO         1763    i.ADNS9800_TST_SROM_running  adns-9800_drv.o
    0x0800188e   0x00000002   PAD
    0x08001890   0x00000100   Code   RO         1900    i.ENC_A_init        encoder.o
    0x08001990   0x00000008   Code   RO         1902    i.ENC_A_value       encoder.o
    0x08001998   0x000000ec   Code   RO         1903    i.ENC_B_init        encoder.o
    0x08001a84   0x0000000c   Code   RO         1905    i.ENC_B_value       encoder.o
    0x08001a90   0x0000002c   Code   RO            4    i.EXTI15_10_IRQHandler  main.o
    0x08001abc   0x00000078   Code   RO            5    i.IRQ_EXTI_13_switch_on  main.o
    0x08001b34   0x00000124   Code   RO         1846    i.Init_SPI1_for_ADNS9800  spi_adns-9800.o
    0x08001c58   0x00000054   Code   RO            6    i.Lib_Error_Message  main.o
    0x08001cac   0x0000006c   Code   RO         1957    i.PWM_disable       pwm_ab.o
    0x08001d18   0x0000006c   Code   RO         1958    i.PWM_enable        pwm_ab.o
    0x08001d84   0x0000025c   Code   RO         1959    i.PWM_init          pwm_ab.o
    0x08001fe0   0x000001a0   Code   RO         1960    i.PWM_set_value     pwm_ab.o
    0x08002180   0x00000080   Code   RO          468    i.RCC_AHB1PeriphClockCmd  stm32f4xx_rcc.o
    0x08002200   0x00000078   Code   RO         1847    i.SPI_read_byte_ADNS9800  spi_adns-9800.o
    0x08002278   0x00000078   Code   RO         1848    i.SPI_write_byte_ADNS9800  spi_adns-9800.o
    0x080022f0   0x00000134   Code   RO         1849    i.SROM_Download_ADNS9800  spi_adns-9800.o
    0x08002424   0x000000e8   Code   RO          261    i.SetSysClock       system_stm32f4xx.o
    0x0800250c   0x00000034   Code   RO         1158    i.SysTick_Handler   port.o
    0x08002540   0x00000068   Code   RO          263    i.SystemInit        system_stm32f4xx.o
    0x080025a8   0x00000020   Code   RO         1961    i.TIM3_IRQHandler   pwm_ab.o
    0x080025c8   0x00000094   Code   RO          193    i.USART_init_myfunc  uart_output.o
    0x0800265c   0x00000044   Code   RO          194    i.USART_send_my_string  uart_output.o
    0x080026a0   0x00000030   Code   RO         2163    i.__ARM_fpclassify  m_wm.l(fpclassify.o)
    0x080026d0   0x0000000e   Code   RO         2036    i._is_digit         c_w.l(__printf_wp.o)
    0x080026de   0x00000004   Code   RO            7    i.assert_failed     main.o
    0x080026e2   0x00000002   PAD
    0x080026e4   0x0000009c   Code   RO          237    i.delay_micro_s     utils.o
    0x08002780   0x000000d8   Code   RO            8    i.main              main.o
    0x08002858   0x00000098   Code   RO         1409    i.prvAddCurrentTaskToDelayedList  tasks.o
    0x080028f0   0x00000098   Code   RO         1410    i.prvAddNewTaskToReadyList  tasks.o
    0x08002988   0x00000002   Code   RO         1411    i.prvCheckTasksWaitingTermination  tasks.o
    0x0800298a   0x0000002a   Code   RO         1235    i.prvCopyDataFromQueue  queue.o
    0x080029b4   0x0000007c   Code   RO         1236    i.prvCopyDataToQueue  queue.o
    0x08002a30   0x0000001c   Code   RO         1412    i.prvIdleTask       tasks.o
    0x08002a4c   0x00000026   Code   RO         1238    i.prvInitialiseNewQueue  queue.o
    0x08002a72   0x00000002   PAD
    0x08002a74   0x000000cc   Code   RO         1413    i.prvInitialiseNewTask  tasks.o
    0x08002b40   0x0000005c   Code   RO         1414    i.prvInitialiseTaskLists  tasks.o
    0x08002b9c   0x0000001a   Code   RO         1239    i.prvIsQueueEmpty   queue.o
    0x08002bb6   0x0000001e   Code   RO         1240    i.prvIsQueueFull    queue.o
    0x08002bd4   0x00000034   Code   RO         1415    i.prvResetNextTaskUnblockTime  tasks.o
    0x08002c08   0x00000016   Code   RO         1417    i.prvTaskCheckFreeStackSpace  tasks.o
    0x08002c1e   0x00000002   PAD
    0x08002c20   0x00000048   Code   RO         1159    i.prvTaskExitError  port.o
    0x08002c68   0x0000007e   Code   RO         1241    i.prvUnlockQueue    queue.o
    0x08002ce6   0x00000002   PAD
    0x08002ce8   0x00000070   Code   RO         1088    i.pvPortMalloc      heap_1.o
    0x08002d58   0x00000020   Code   RO         1420    i.pvTaskIncrementMutexHeldCount  tasks.o
    0x08002d78   0x0000002c   Code   RO         1160    i.pxPortInitialiseStack  port.o
    0x08002da4   0x00000028   Code   RO         1121    i.uxListRemove      list.o
    0x08002dcc   0x00000028   Code   RO         1422    i.uxTaskGetStackHighWaterMark  tasks.o
    0x08002df4   0x00000058   Code   RO            9    i.vAssertCalled     main.o
    0x08002e4c   0x0000001a   Code   RO         1122    i.vListInitialise   list.o
    0x08002e66   0x00000006   Code   RO         1123    i.vListInitialiseItem  list.o
    0x08002e6c   0x00000034   Code   RO         1124    i.vListInsert       list.o
    0x08002ea0   0x00000018   Code   RO         1125    i.vListInsertEnd    list.o
    0x08002eb8   0x00000504   Code   RO         1713    i.vOrientation_task  orientation_task.o
    0x080033bc   0x00000060   Code   RO         1162    i.vPortEnterCritical  port.o
    0x0800341c   0x00000048   Code   RO         1163    i.vPortExitCritical  port.o
    0x08003464   0x00000030   Code   RO         1089    i.vPortFree         heap_1.o
    0x08003494   0x00000014   Code   RO         1164    i.vPortSetupTimerInterrupt  port.o
    0x080034a8   0x00000028   Code   RO           10    i.vTask1            main.o
    0x080034d0   0x00000068   Code   RO         1426    i.vTaskDelay        tasks.o
    0x08003538   0x0000000c   Code   RO         1429    i.vTaskMissedYield  tasks.o
    0x08003544   0x00000044   Code   RO         1430    i.vTaskPlaceOnEventList  tasks.o
    0x08003588   0x000000b0   Code   RO         1432    i.vTaskPriorityInherit  tasks.o
    0x08003638   0x00000040   Code   RO         1436    i.vTaskSetTimeOutState  tasks.o
    0x08003678   0x00000094   Code   RO         1437    i.vTaskStartScheduler  tasks.o
    0x0800370c   0x00000010   Code   RO         1439    i.vTaskSuspendAll   tasks.o
    0x0800371c   0x00000098   Code   RO         1440    i.vTaskSwitchContext  tasks.o
    0x080037b4   0x00000128   Code   RO         1166    i.xPortStartScheduler  port.o
    0x080038dc   0x00000064   Code   RO         1250    i.xQueueGenericCreate  queue.o
    0x08003940   0x00000190   Code   RO         1251    i.xQueueGenericReceive  queue.o
    0x08003ad0   0x0000008c   Code   RO         1252    i.xQueueGenericReset  queue.o
    0x08003b5c   0x0000016c   Code   RO         1253    i.xQueueGenericSend  queue.o
    0x08003cc8   0x00000090   Code   RO         1441    i.xTaskCheckForTimeOut  tasks.o
    0x08003d58   0x00000060   Code   RO         1442    i.xTaskCreate       tasks.o
    0x08003db8   0x00000020   Code   RO         1445    i.xTaskGetSchedulerState  tasks.o
    0x08003dd8   0x00000118   Code   RO         1448    i.xTaskIncrementTick  tasks.o
    0x08003ef0   0x000000c8   Code   RO         1449    i.xTaskPriorityDisinherit  tasks.o
    0x08003fb8   0x000000a4   Code   RO         1450    i.xTaskRemoveFromEventList  tasks.o
    0x0800405c   0x000000fc   Code   RO         1452    i.xTaskResumeAll    tasks.o
    0x08004158   0x0000002c   Code   RO         2157    locale$$code        c_w.l(lc_numeric_c.o)
    0x08004184   0x000002b0   Code   RO         2065    x$fpl$ddiv          fz_wm.l(ddiv.o)
    0x08004434   0x0000005a   Code   RO         2068    x$fpl$dfixu         fz_wm.l(dfixu.o)
    0x0800448e   0x00000026   Code   RO         2072    x$fpl$dfltu         fz_wm.l(dflt_clz.o)
    0x080044b4   0x00000154   Code   RO         2078    x$fpl$dmul          fz_wm.l(dmul.o)
    0x08004608   0x0000009c   Code   RO         2098    x$fpl$dnaninf       fz_wm.l(dnaninf.o)
    0x080046a4   0x0000000c   Code   RO         2100    x$fpl$dretinf       fz_wm.l(dretinf.o)
    0x080046b0   0x00000056   Code   RO         2080    x$fpl$f2d           fz_wm.l(f2d.o)
    0x08004706   0x0000008c   Code   RO         2102    x$fpl$fnaninf       fz_wm.l(fnaninf.o)
    0x08004792   0x0000000a   Code   RO         2229    x$fpl$fpinit        fz_wm.l(fpinit.o)
    0x0800479c   0x00000004   Code   RO         2082    x$fpl$printf1       fz_wm.l(printf1.o)
    0x080047a0   0x00000000   Code   RO         2104    x$fpl$usenofp       fz_wm.l(usenofp.o)
    0x080047a0   0x00000014   Data   RO           11    .constdata          main.o
    0x080047b4   0x00000bfe   Data   RO         1851    .constdata          spi_adns-9800.o
    0x080053b2   0x00000011   Data   RO         2039    .constdata          c_w.l(__printf_flags_wp.o)
    0x080053c3   0x00000001   PAD
    0x080053c4   0x00000094   Data   RO         2132    .constdata          c_w.l(bigflt0.o)
    0x08005458   0x00000020   Data   RO         2304    Region$$Table       anon$$obj.o
    0x08005478   0x0000001c   Data   RO         2156    locale$$data        c_w.l(lc_numeric_c.o)


    Execution Region ER_RW (Base: 0x20000000, Size: 0x00000080, Max: 0xffffffff, ABSOLUTE)

    Base Addr    Size         Type   Attr      Idx    E Section Name        Object

    0x20000000   0x00000014   Data   RW           12    .data               main.o
    0x20000014   0x00000014   Data   RW          264    .data               system_stm32f4xx.o
    0x20000028   0x00000008   Data   RW         1093    .data               heap_1.o
    0x20000030   0x0000000c   Data   RW         1167    .data               port.o
    0x2000003c   0x00000038   Data   RW         1455    .data               tasks.o
    0x20000074   0x00000009   Data   RW         1962    .data               pwm_ab.o


    Execution Region ER_ZI (Base: 0x20000080, Size: 0x0001e718, Max: 0xffffffff, ABSOLUTE)

    Base Addr    Size         Type   Attr      Idx    E Section Name        Object

    0x20000080   0x0001e000   Zero   RW         1092    .bss                heap_1.o
    0x2001e080   0x000000b4   Zero   RW         1454    .bss                tasks.o
    0x2001e134   0x00000060   Zero   RW         2166    .bss                c_w.l(libspace.o)
    0x2001e194   0x00000004   PAD
    0x2001e198   0x00000200   Zero   RW          966    HEAP                startup_stm32f411xe.o
    0x2001e398   0x00000400   Zero   RW          965    STACK               startup_stm32f411xe.o


==============================================================================

Image component sizes


      Code (inc. data)   RO Data    RW Data    ZI Data      Debug   Object Name

       402          0          0          0          0       6749   adns-9800_drv.o
         0          0          0          0          0       7820   croutine.o
       512         46          0          0          0       2422   encoder.o
         0          0          0          0          0       9296   event_groups.o
       160         40          0          8     122880       1887   heap_1.o
       148          0          0          0          0       3114   list.o
       596        210         20         20          0     260676   main.o
         0          0          0          0          0     206548   misc.o
      1284        550          0          0          0       2717   orientation_task.o
       834        162          0         12          0       9604   port.o
      1268        270          0          9          0      30313   pwm_ab.o
      1390        106          0          0          0       9330   queue.o
       840        118       3070          0          0       3400   spi_adns-9800.o
        64         26        408          0       1536        824   startup_stm32f411xe.o
       128         58          0          0          0        673   stm32f4xx_rcc.o
       336         32          0         20          0       1797   system_stm32f4xx.o
      2684        588          0         56        180      27281   tasks.o
       216         36          0          0          0       1383   uart_output.o
       156         30          0          0          0        944   utils.o

    ----------------------------------------------------------------------
     11030       2272       3530        128     124596     586778   Object Totals
         0          0         32          0          0          0   (incl. Generated)
        12          0          0          3          0          0   (incl. Padding)

    ----------------------------------------------------------------------

      Code (inc. data)   RO Data    RW Data    ZI Data      Debug   Library Member Name

         8          0          0          0          0         68   __main.o
       312          4         17          0          0         92   __printf_flags_wp.o
        14          0          0          0          0         68   __printf_wp.o
         0          0          0          0          0          0   __rtentry.o
        12          0          0          0          0          0   __rtentry2.o
         6          0          0          0          0          0   __rtentry4.o
        52          8          0          0          0          0   __scatter.o
        26          0          0          0          0          0   __scatter_copy.o
        28          0          0          0          0          0   __scatter_zi.o
        44          0          0          0          0        108   _printf_char.o
        48          6          0          0          0         96   _printf_char_common.o
         6          0          0          0          0          0   _printf_d.o
       120         16          0          0          0         92   _printf_dec.o
         6          0          0          0          0          0   _printf_f.o
      1050          0          0          0          0        216   _printf_fp_dec.o
       128         16          0          0          0         84   _printf_fp_infnan.o
         6          0          0          0          0          0   _printf_i.o
       178          0          0          0          0         88   _printf_intcommon.o
        78          0          0          0          0        108   _printf_pad.o
         0          0          0          0          0          0   _printf_percent.o
         4          0          0          0          0          0   _printf_percent_end.o
         6          0          0          0          0          0   _printf_s.o
        82          0          0          0          0         80   _printf_str.o
         6          0          0          0          0          0   _printf_u.o
        10          0          0          0          0         68   _sputc.o
        16          0          0          0          0         68   aeabi_memset.o
       220          4        148          0          0         96   bigflt0.o
      1910        128          0          0          0        672   btod.o
        18          0          0          0          0         80   exit.o
         6          0          0          0          0        152   heapauxi.o
         0          0          0          0          0          0   indicate_semi.o
        44         10         28          0          0         76   lc_numeric_c.o
         2          0          0          0          0          0   libinit.o
        22          0          0          0          0          0   libinit2.o
         2          0          0          0          0          0   libshutdown.o
         2          0          0          0          0          0   libshutdown2.o
         8          4          0          0         96         68   libspace.o
       138          0          0          0          0         80   lludiv10.o
        40          6          0          0          0         84   noretval__2sprintf.o
         8          4          0          0          0         68   rt_locale_intlibspace.o
        68          0          0          0          0         68   rt_memclr.o
        78          0          0          0          0         80   rt_memclr_w.o
       138          0          0          0          0         68   rt_memcpy_v6.o
       100          0          0          0          0         80   rt_memcpy_w.o
         2          0          0          0          0          0   rtexit.o
        10          0          0          0          0          0   rtexit2.o
       128          0          0          0          0         68   strcmpv7m.o
        12          4          0          0          0         68   sys_exit.o
        74          0          0          0          0         80   sys_stackheap_outer.o
         2          0          0          0          0         68   use_no_semi.o
       688        140          0          0          0        256   ddiv.o
        90          4          0          0          0        140   dfixu.o
        38          0          0          0          0        116   dflt_clz.o
       340         12          0          0          0        152   dmul.o
       156          4          0          0          0        140   dnaninf.o
        12          0          0          0          0        116   dretinf.o
        86          4          0          0          0        132   f2d.o
       140          4          0          0          0        132   fnaninf.o
        10          0          0          0          0        116   fpinit.o
         4          0          0          0          0        116   printf1.o
         0          0          0          0          0          0   usenofp.o
        48          0          0          0          0        124   fpclassify.o

    ----------------------------------------------------------------------
      6898        378        194          0        100       4732   Library Totals
         8          0          1          0          4          0   (incl. Padding)

    ----------------------------------------------------------------------

      Code (inc. data)   RO Data    RW Data    ZI Data      Debug   Library Name

      5278        210        193          0         96       3192   c_w.l
      1564        168          0          0          0       1416   fz_wm.l
        48          0          0          0          0        124   m_wm.l

    ----------------------------------------------------------------------
      6898        378        194          0        100       4732   Library Totals

    ----------------------------------------------------------------------

==============================================================================


      Code (inc. data)   RO Data    RW Data    ZI Data      Debug   

     17928       2650       3724        128     124696     580942   Grand Totals
     17928       2650       3724        128     124696     580942   ELF Image Totals
     17928       2650       3724        128          0          0   ROM Totals

==============================================================================

    Total RO  Size (Code + RO Data)                21652 (  21.14kB)
    Total RW  Size (RW Data + ZI Data)            124824 ( 121.90kB)
    Total ROM Size (Code + RO Data + RW Data)      21780 (  21.27kB)

==============================================================================

